:020000021000EC
:109000000000012085960100B5960100B796010089
:10901000B9960100BB960100BD960100000000005A
:10902000000000000000000000000000BF960100EA
:10903000C196010000000000C3960100C596010022
:10904000C9960100CB960100CD960100CF96010094
:10905000D1960100D3960100D5960100D796010064
:10906000D9960100DB960100DD960100DF96010034
:10907000E1960100E3960100E5960100E796010004
:10908000E9960100EB960100ED960100EF960100D4
:10909000F1960100F3960100F5960100F7960100A4
:1090A000F9960100FB960100FD960100FF96010074
:1090B0000197010003970100C7960100C7960100C0
:1090C0000597010007970100099701000B97010020
:0C90D0000D9701000F970100119701009F
:1090DC000F4B1B78062B01D0002070470D4B1B68E3
:1090EC0013F00F0F0BD10C4B1B6803F0F003302B5C
:1090FC0007D0402B07D0502B07D000207047002002
:10910C00704701207047012070470120704700BF55
:10911C00E00F00F0E40F00F0E80F00F00B4B1B78B1
:10912C00062B01D000207047094B1B6813F00F0F62
:10913C0007D1084B1B6803F0F003302B03D0002041
:10914C007047002070470120704700BFE00F00F00F
:10915C00E40F00F0E80F00F00F4B1B78062B01D04A
:10916C00002070470D4B1B6813F00F0F0BD10C4BED
:10917C001B6803F0F003302B07D0402B07D0502B8B
:10918C0007D0002070470020704701207047012055
:10919C0070470120704700BFE00F00F0E40F00F0B3
:1091AC00E80F00F00B4B1B78062B01D0002070470A
:1091BC00094B1B6813F00F0F07D1084B1B6803F00A
:1091CC00F003302B03D000207047002070470120A3
:1091DC00704700BFE00F00F0E40F00F0E80F00F064
:1091EC000F4B1B78062B01D0002070470D4B1B68D2
:1091FC0013F00F0F0BD10C4B1B6803F0F003302B4B
:10920C0007D0402B07D0502B07D0002070470020F0
:10921C00704701207047012070470120704700BF44
:10922C00E00F00F0E40F00F0E80F00F00B4B1B78A0
:10923C00062B01D000207047094B1B6813F00F0F51
:10924C0007D1084B1B6803F0F003302B03D0002030
:10925C007047002070470120704700BFE00F00F0FE
:10926C00E40F00F0E80F00F00B4B1B78062B01D03D
:10927C0000207047094B1B6813F00F0F07D1084BE8
:10928C001B6803F0F003302B03D000207047002044
:10929C0070470120704700BFE00F00F0E40F00F0B2
:1092AC00E80F00F00B4B1B78062B01D00020704709
:1092BC00094B1B6813F00F0F07D1084B1B6803F009
:1092CC00F003502B03D00020704700207047012082
:1092DC00704700BFE00F00F0E40F00F0E80F00F063
:1092EC000F4B1B78062B01D0002070470D4B1B68D1
:1092FC0013F00F0F0BD10C4B1B6803F0F003302B4A
:10930C0007D0402B07D0502B07D0002070470020EF
:10931C00704701207047012070470120704700BF43
:10932C00E00F00F0E40F00F0E80F00F00F4B1B789B
:10933C00062B01D0002070470D4B1B6813F00F0F4C
:10934C000BD10C4B1B6803F0F003302B07D0402BD8
:10935C0007D0502B07D00020704700207047012009
:10936C007047012070470120704700BFE00F00F0EC
:10937C00E40F00F0E80F00F0014B024A1A6070474E
:10938C00003000200090D00308B5FFF7A1FE28B1F3
:10939C00574B1B68C3F30423564A1360FFF7BEFEFA
:1093AC0010B1554B554A1A60FFF7D6FE28B1544BF5
:1093BC001B68C3F34233534A1360FFF7F3FE20B12B
:1093CC00514AD36823F08073D360FFF709FF40B193
:1093DC004FF080430022C3F80C21C3F81021C3F8CE
:1093EC003825FFF723FF10B1484B03221A60FFF713
:1093FC003BFF58B1464B05221A60783301221A60A4
:10940C00703B00221A60043B3F221A60FFF74AFFB0
:10941C00002846D04FF08052D2F804143D4BC3F8CC
:10942C002015D2F80814C3F82415D2F80C14C3F87C
:10943C002815D2F81014C3F82C15D2F81414C3F84C
:10944C003015D2F81814C3F83415D2F81C14C3F81C
:10945C004015D2F82014C3F84415D2F82414C3F8DC
:10946C004815D2F82814C3F84C15D2F82C14C3F8AC
:10947C005015D2F83014C3F85415D2F83414C3F87C
:10948C006015D2F83814C3F86415D2F83C14C3F83C
:10949C006815D2F84014C3F86C15D2F84424C3F8FC
:1094AC007025FFF71DFF28B11B4B1B6803F04F0302
:1094BC001A4A1360FFF73AFF60B14FF08043D3F8BC
:1094CC00003413F0010F05D04FF080436FF0010210
:1094DC00C3F80024124AD2F8883043F47003C2F85F
:1094EC008830BFF34F8FBFF36F8FFFF745FF08BD79
:1094FC00240300104035014074C007400DF0ADBA94
:10950C00440200103C050040F0ED00E0A0050040D6
:10951C001056004000C0004058020010E40E0040FD
:10952C0000ED00E0344935480A1A02D00722914375
:10953C008D46334933480A1A06D00722914381F3EA
:10954C000988022282F314882F483049304A00F0EF
:10955C0042F830483049314A00F03DF83048314942
:10956C00314A00F038F831483149324A00F033F8CA
:10957C0031483249324A00F02EF832483249334AE7
:10958C0000F029F832483349334A00F024F83348C4
:10959C003349002200F02AF832483349002200F007
:1095AC0025F832483249091A082902DB00220260E8
:1095BC0041601F481F49884205D00268043003B43B
:1095CC00904703BCF7E700208646EC4600200021BC
:1095DC00284A9047FEE7884207D0521A05D00378F4
:1095EC0001300B700131013AF9D17047884202D039
:1095FC0002700130FAE770470000012000F80020EB
:10960C0000000120000001203CAD010000300020D2
:10961C000C3000201497010014970100F0A70100F2
:10962C003CAD01000030002000300020F0A701000C
:10963C00F0A70100F8A70100F0A70100F0A70100B6
:10964C00F0A70100F8A70100F8A701003CAD01004C
:10965C0048AD010020350020203500200C300020C2
:10966C00203500202035002020350020203500201A
:10967C0020360020959F010008484FF007018843D1
:10968C008546074880470748016841F4700101602E
:10969C00BFF34F8FBFF36F8FFFF744BF0000012064
:1096AC009593010088ED00E0FEE7FEE7FEE7FEE79C
:1096BC00FEE7FEE7FEE7FEE7FEE7FEE7FEE7FEE776
:1096CC00FEE7FEE7FEE7FEE7FEE7FEE7FEE7FEE766
:1096DC00FEE7FEE7FEE7FEE7FEE7FEE7FEE7FEE756
:1096EC00FEE7FEE7FEE7FEE7FEE7FEE7FEE7FEE746
:1096FC00FEE7FEE7FEE7FEE7FEE7FEE7FEE7FEE736
:08970C00FEE7FEE7FEE700BFE7
:109714000369C268934204D88068801A0344581EBF
:1097240070479B1A581E70472DE9F8430546884632
:109734001646C468D0F80890A9EB0407974207D9E5
:109744004068204400F05EFD3444EC60BDE8F883DA
:1097540040683A46204400F055FDA4EB0904344423
:10976400224608EB0701686800F04CFDEC60EDE769
:109774002DE9F843064688461746C5684FF00009A8
:109784001AE0B268641B1444621EB3685C1B944202
:1097940028BF1446BC4228BF3C4670682246414656
:1097A400284400F02FFDA144A0443F1B2544B36886
:1097B400AB4207D0F5603FB13469A542E1D2641BE6
:1097C400621EE2E70025F5E74846BDE8F88300009D
:1097D40010B5114C022323616361104AA261104B3E
:1097E400E3614FF4806323620023A3626362E36254
:1097F400A2640C4AE26410222265A3656365E365F2
:109804000949E01D00F027FD0849204600F023FD2A
:109814002023A37110BD00BF0C300020F8A7010065
:10982400943000208430002004A8010008A801001E
:10983400F8B50F461646194A431C03EB4303DD00F3
:10984400154400EB4000C3001A44D46A012C11D023
:1098540024B1022C1BD000242046F8BD2846FFF773
:1098640057FFB042F8D3324639462846FFF75CFF2B
:109874003446F1E72846FFF74BFF3446864228BFBB
:109884000446224639462846FFF74EFFE4E73246AF
:109894002846FFF76DFF0446DEE700BF0C300020CA
:1098A400F8B505460E461746094B1B786BB1EFF326
:1098B40011844FF0200181F311883A46314628463D
:1098C400FFF7B6FF84F31188F8BDFFF781FFEEE7D9
:1098D4000C3000200FB410B5A2B024AB53F8042B05
:1098E4000193802102A800F07FFC0446024602A9ED
:1098F4000020FFF7D5FF204622B0BDE8104004B099
:109904007047000008B513460A4601460148FFF7B0
:10991400E1FF08BD10A8010008B5013A122A2BD8AE
:10992400DFE802F00A2C0C0E101214162A182A1A58
:109934001C1E202224262800124A20E0124A1EE07F
:10994400124A1CE0124A1AE0124A18E0124A16E0BF
:10995400124A14E0124A12E0124A10E0124A0EE0CF
:10996400124A0CE0124A0AE0124A08E0124A06E0DF
:10997400124A04E0124A02E0124A00E0124AFFF7D7
:10998400C1FF08BD14AA0100E0A80100F0A801006D
:1099940000A901000CA901001CA9010030A90100C3
:1099A40054A9010064A9010078A9010080A901005B
:1099B4009CA90100B0A90100C0A90100C8A9010027
:1099C400ECA90100B8A80100C8A8010008B5012845
:1099D40009D041F20103984209D00A4601460648DB
:1099E400FFF778FF02E00548FFF774FF08BD04485D
:1099F400FFF770FFFAE700BF88A8010024A8010060
:109A04004CA8010072DF704773DF704710B5164B26
:109A140000221A605A60DA601A615A6101221A70CF
:109A2400202199605A75114BD87F114BDB7F8BB184
:109A34000F4A10490D4C0C6088808A608B810A4A59
:109A44000D48FFF7DFFF024630B131210B48FFF725
:109A540063FFFEE70022ECE7094B3222074909487D
:109A6400FFF738FF10BD00BFA4340020DC34002011
:109A7400FC340020943400200430002028AA010083
:109A840060AA01007CAA010008B50121024B1878E4
:109A9400FFF7BAFF08BD00BF043000204378313B14
:109AA400352B1CD8DFE803F0391D1F212325272976
:109AB4002B1B1B1B1B1B1B1B2D2F313335371B1B58
:109AC4001B1B1B1B1B1B1B1B1B1B1B1B1B1B1B1BE2
:109AD4001B1B1B1B1B1B1B1B2D2F3133353700225C
:109AE4001CE002221AE0032218E0042216E00522F8
:109AF40014E0062212E0072210E008220EE00922F8
:109B04000CE00A220AE00B2208E00C2206E00D22F7
:109B140004E00E2202E00F2200E001220378313B30
:109B2400352B1CD8DFE803F0391D1F2123252729F5
:109B34002B1B1B1B1B1B1B1B2D2F313335371B1BD7
:109B44001B1B1B1B1B1B1B1B1B1B1B1B1B1B1B1B61
:109B54001B1B1B1B1B1B1B1B2D2F313335370020DD
:109B64001CE002201AE0032018E0042016E005207F
:109B740014E0062012E0072010E008200EE009207F
:109B84000CE00A200AE00B2008E00C2006E00D207F
:109B940004E00E2002E00F2000E0012002EB0010A0
:109BA40070470000012800D0704738B54FF6FF73A6
:109BB400994200D038BD0023394AD37700E00133FD
:109BC400384A9A5C002AFAD1062B09D0242B01D1F9
:109BD400002306E0344A56213448FFF793FEFEE79B
:109BE4000023304A9A5C0AB10133FAE7062B50D0BD
:109BF4002B4C1023E3772E4D2846FFF74FFF2070A0
:109C0400A81EFFF74BFF6070281FFFF747FFA070E7
:109C1400A81FFFF743FFE070A5F10800FFF73EFF20
:109C24002071A5F10A00FFF739FF6071A5F10D005D
:109C3400FFF734FFA071A5F10F00FFF72FFFE071CC
:109C4400A5F11200FFF72AFF2072A5F11400FFF717
:109C540025FF6072A5F11700FFF720FFA072A5F1A0
:109C64001900FFF71BFFE072A5F11C00FFF716FFB8
:109C74002073A5F11E00FFF711FF6073A5F120000A
:109C8400FFF70CFFA073A5F12200FFF707FFE073B5
:109C940090E7084A58210548FFF734FEFEE700BF65
:109CA400BC34002090AA0100B8AA0100C8AA01008F
:109CB400B2AA010000AB010008B54FF6FF71012004
:109CC400FFF770FF08BD8FDF7047B5DF704760DFB7
:109CD400704769DF704761DF7047000030B5A3B09B
:109CE40000231F932093219301228DF87C208DF86B
:109CF4007E200421ADF880101C931D931E938DF8D3
:109D040070206421ADF87210CDF86630CDF86A3059
:109D1400ADF86E308DF864208DF865201693189395
:109D240002238DF85930304C2068179000F0B5FAB2
:109D3400ADF86000206800F0B0FAADF862002B4B7B
:109D44001A681FA92020FFF7C4FF28B10246432147
:109D54002748FFF7E1FDFEE7244B1A681CA92220DF
:109D6400FFF7B7FF024620B144212148FFF7D4FD95
:109D7400FEE71E4B1A6819A94020FFF7AAFF024606
:109D840020B145211A48FFF7C7FDFEE7174B1A68B3
:109D940016A94120FFF79DFF024620B14621144831
:109DA400FFF7BAFDFEE7114B1D68159515A8FFF7DF
:109DB4008EFF0446159AAA1A0E4901A800F0FFF96D
:109DC40001AB4E220A490C48FFF784FD2CB1224610
:109DD40050210748FFF7A0FDFEE7C820FFF716FE55
:109DE400FFF752FE23B030BD0830002098AC0100CC
:109DF40038AC010074AC01007CAA0100B0B598B085
:109E040000AF46E0002252E0534B702253495448BD
:109E1400FFF760FD5AE073215048FFF77DFDFEE730
:109E2400102A0ED0112A40F085802020FFF7EEFD85
:109E3400FFF72AFE4B4B7B2248494948FFF74AFD6E
:109E440027E0494B7F2245494548FFF743FD20E081
:109E5400464B842241494248FFF73CFD444B1B8852
:109E6400BB8107F10C01A088FFF72DFFA2683A819E
:109E7400130CBB72DBB2C2F307223E4907F10C009C
:109E840000F09DF907F10C03902234493448FFF7A0
:109E940021FD07F15E010020FFF71DFF052858D0C2
:109EA400B7F85E20931012F0030FABD001221344D5
:109EB4009B009BB2FB809A100732D2086946A1EB43
:109EC400C20295466C46B3F5805F9DD8B91D204605
:109ED400FFF701FF024600289DD12288212AB7D02E
:109EE4009ED9222AC2D0552A24D1234B96221B491B
:109EF4001B48FFF7EFFCE588642D28BF642529463D
:109F0400A088FFF7E2FE112806D11C4B99221349C1
:109F14001348FFF7DFFCF2E72A46194907F10C0062
:109F240000F04DF907F10C039B220C490C48FFF794
:109F3400D1FCAEE7B7F85E30124907F10C0000F02F
:109F44003EF907F10C03A22204490548FFF7C2FCBD
:109F54009FE76037BD46B0BD28AB010038AC0100B7
:109F64007CAA010040AB010064AB01008CAB010092
:109F740024AB0100B0AB0100C8AB0100E8AB0100A9
:109F840004AC010014AC010041DF704710DF7047DE
:109F940000B583B001238DF8043000238DF805301B
:109FA4008DF8063007238DF807300F4901A8FFF715
:109FB400EDFF28B1024654210C48FFF7ADFCFEE743
:109FC4000B4B552209490B48FFF784FCFFF786FE2B
:109FD400FFF7DAFF024610B9FFF710FFF8E759213F
:109FE4000248FFF799FCFEE7D19901009CAC0100FF
:109FF400D0AC01007CAA010010B5C37FCA7F134412
:10A004001E2B0ADC0023CA7F9A420CDDC27FCC5C83
:10A01400845401330132C277F5E7034A38210348F7
:10A02400FFF770FCFEE710BD04AD0100C8AA0100F3
:10A03400012800D070474FF6FF739942FAD130B52A
:10A04400A3B000248DF8234003238DF8433002236A
:10A054008DF8243001238DF8253006238DF8263021
:10A0640009A901A8FFF7C8FF3C4B1D688DF86340A0
:10A074002346EA5C0AB10133FBE71C2B0BDCDAB2A2
:10A08400911C8DF8631001328DF8442009228DF85B
:10A09400452000220DE0324A95213248FFF732FC78
:10A0A400FEE7911CAC5C0DF1880C614401F8444C52
:10A0B40001329342F5DC11A9FFF79EFF01238DF8CD
:10A0C400843002228DF883208DF8643006228DF8C6
:10A0D4006520254AD27F102A08D00BB9022A05D060
:10A0E400224A87211F48FFF70DFCFEE71E4BD97F4C
:10A0F4009DF864200A448DF864209DF883300B4455
:10A104001E2B11DC0022184BDB7F934212DD9DF8DD
:10A11400833015498C5C22A9194401F8244C01327E
:10A1240001338DF88330EEE7114A38210D48FFF7EB
:10A13400E9FBFEE719A9FFF75FFF05460D4C006830
:10A144006968AA68EB680FC428696969AA69EB6938
:10A154000FC4094B0022DA7723B030BD0830002049
:10A16400E4AC0100C8AA0100BC340020F4AC010036
:10A1740004AD0100DC340020FC34002008B54FF6A7
:10A18400FF710120FFF754FF08BD38B504460846A7
:10A19400A26842B1236861685D1C8D4208BF00203B
:10A1A4008B4208D2D054E3682BB121686268914293
:10A1B40001D22146984723680133236038BD0EB489
:10A1C40000B586B007AA52F8041B05920390002339
:10A1D40004936FF00043029301A800F08FF806B0D7
:10A1E4005DF804EB03B0704710B584B014460290D8
:10A1F4000022039201911A462146684600F07EF837
:10A2040004B010BD844640EA010313F0030F18D1D3
:10A214008446202A0BD32DE9F007B1E8F807A0E81B
:10A22400F807A2F12002202AF7D2BDE8F007042A99
:10A2340007D351F8043B40F8043BA2F10402042A7A
:10A24400F7D2002A05D011F8013B00F8013B013A8E
:10A25400F9D160467047024610F0030F16D111F091
:10A26400030F13D12DE9F0004FF001374FF0803385
:10A2740051F8044BA4EB070525EA04051D4002D15F
:10A2840042F8044BF4E7A1F10401F0BC11F8013BDE
:10A2940002F8013B002BF9D1704700F1010110F0E5
:10A2A400030F11D010F8012B002A23D010F0030F54
:10A2B4000AD010F8012B002A1CD010F0030F03D091
:10A2C40010F8012B002A15D02DE970004FF001324F
:10A2D4004FF0803350F8044BA4EB020525EA040543
:10A2E4001D4000D1F6E7A0F1040070BC10F8012B6A
:10A2F400002AFBD1A0EB0100704700002DE9F04FCC
:10A3040089B007460D46039200230360DFF8D89313
:10A31400DFF8D8B3DFF8D8A348E2002209E0202808
:10A3240004D0232818D142F0800201E042F0400218
:10A334002E46354615F8010B272807D0EFD92B28D0
:10A3440007D05E2808D142F48052F1E742F400427B
:10A35400EEE742F02002EBE774280BD07A2809D00C
:10A36400682809D12878682800F08380B51C42F059
:10A37400040201E02878B51C78287FD8DFE810F0C3
:10A384002E027E007E007E007E007E007E007E0027
:10A394007E007E007E007E007E007E007E007E00C9
:10A3A4007E007E007E007E007E007E007E007E00B9
:10A3B4007E007E007E007E007E007E007E007E00A9
:10A3C4007E007E007E007E007E008B007E007E008C
:10A3D4007E007E007E007E007E007E007E007E0089
:10A3E4007E007E007E007E007E007E007E007E0079
:10A3F4007E007E007E007E007E007E007E007E0069
:10A404007E007E007E007E007E007E007E007E0058
:10A414007E007E007E007E007E007E007E007E0048
:10A424007E007E007E007E007E007E007E007E0038
:10A43400CD007E007E007E007E007E007E007E00D9
:10A444007E007E007E009000E1007E007E007E00A3
:10A454007E00E1007E007E007E007E009800DA002F
:10A46400B9007E007E00A9007E001D017E007E00F2
:10A47400CF0042F00802687802357DE7994B1E68E8
:10A48400002E00F0938103AB01934FF0FF33009350
:10A494003946B0478AE125213846FFF776FE85E143
:10A4A400039B1A1D039219783846FFF76EFE7DE16F
:10A4B40012F0080F06D03A68039B191D03911B681C
:10A4C4001A7073E1039B1A1D03921B683A681A60A1
:10A4D4006CE1039B1A1D03921C682178002900F08B
:10A4E40065813846FFF751FE14F8011F0029F8D1A1
:10A4F4005CE1039B191D03911B6802F08001002994
:10A504000CBF0026232642F48071002B40F0CD803E
:10A5140030238DF814300124F9E042F4005212F093
:10A52400800F57D043F2780643F25803782818BFB7
:10A534001E4643E002F08003002B0CBF00263026A9
:10A544003CE042F48041039B1C1D03941B6812F001
:10A55400040F41D112F0080F3FD0DBB212F0200FEC
:10A5640040F03F8112F0400440F03D8158382028EB
:10A5740000F20F81DFE810F097000D010D010D01CD
:10A584000D010D010D010D010D010D010D010D0157
:10A59400DC000D010D010D010D01DC000D010D01AB
:10A5A4000D010D010D01AE0097000D010D010D010E
:10A5B4000D01DC000D010D0197000026039B191D00
:10A5C40003911B6812F0040F54D112F0080F18BF46
:10A5D400DBB250E00026F1E71BB2002BBEDA5B428F
:10A5E4002D265838202800F2D68001A252F820F0F7
:10A5F4000FA501009BA701009BA701009BA70100D9
:10A604009BA701009BA701009BA701009BA701003A
:10A614009BA701009BA701009BA701009BA701002A
:10A6240029A701009BA701009BA701009BA701008C
:10A634009BA7010029A701009BA701009BA701007C
:10A644009BA701009BA701009BA70100DBA60100BB
:10A654000FA501009BA701009BA701009BA7010078
:10A664009BA7010029A701009BA701009BA701004C
:10A674000FA501009BB2583820287ED8DFE800F0EF
:10A68400117D7D7D7D7D7D7D7D7D7D7D517D7D7D8E
:10A694007D517D7D7D7D7D2B117D7D7D7D517D7DFC
:10A6A4001100114631E700262FE705AA002401F422
:10A6B400005008E003F00F011BF801C002F801CBC1
:10A6C40001341B0923D00028F4D003F00F011AF839
:10A6D40001C0F3E700266BB930238DF81430012450
:10A6E40015E000BF1C350020CDCCCCCC1CAD010046
:10A6F4002CAD01001A4605A9002403F007033033EA
:10A7040001F8013B0134D2081346002AF5D1FF2E8B
:10A7140035D8C6BB002C49DD0DF11408013C444476
:10A724003CE0114633B930238DF814300124EEE7B0
:10A734000026F7E7002401F400404FF02C0E10E04F
:10A7440008AA02EB040CA9FB0321C90801EB81024E
:10A75400A3EB420230320CF80C2C0134092BD6D96D
:10A764000B460028ECD004F00302032AE8D108AA1F
:10A77400224402F80CEC0134E2E70024C7E7310A72
:10A784003846FFF702FD06F07F013846FFF7FDFC6F
:10A79400C0E70026BDE70024F5E73446264616F850
:10A7A40001193846FFF7F1FC4445F6D12E4616F858
:10A7B400011B39B125293FF4B0AD3846FFF7E5FC5C
:10A7C4003546F3E7BB682BB13A6879688A423CBFE7
:10A7D40000219954386809B0BDE8F08F4FF0FF307C
:0CA7E400F9E72B26FDE62026FBE600BF6F
:08A7F000BD9C010081A10100E4
:10A7F8005465726D696E616C00000000525454001B
:10A8080053454747455200004572726F7220696E82
:10A818002025733A25643A2025730A00486172643A
:10A828006661756C7420617373657274696F6E20EC
:10A8380061742061646472657373203078253038E0
:10A84800580A00004D656D6F727920616363657306
:10A85800732076696F6C6174696F6E206174206112
:10A8680064647265737320307825303858206163CA
:10A8780063657373696E67203078253038580A002D
:10A88800556E6B6E6F776E20686172646661756C69
:10A8980074202849443D256429206174206164643A
:10A8A80072657373203078253038580A000000002C
:10A8B800556E6B6E6F776E206572726F7200000056
:10A8C800536F6674446576696365206E6F7420659E
:10A8D8006E61626C65640000496E7465726E616CCD
:10A8E800206572726F7200004F7574206F66206D5C
:10A8F800656D6F72790000004E6F7420666F756E1B
:10A90800640000004E6F7420737570706F72746508
:10A9180064000000496E76616C6964207061726140
:10A928006D657465720000004F7065726174696FBF
:10A938006E206E6F7420616C6C6F77656420696E31
:10A94800207468697320737461746500496E766158
:10A958006C696420666C616773000000496E7661FB
:10A968006C696420646174612073697A6500000011
:10A9780054696D656F7574004E756C6C20706F69E5
:10A988006E746572206E6F7420616C6C6F7765648D
:10A9980000000000466F7262696464656E206F7023
:10A9A80065726174696F6E00496E76616C696420C6
:10A9B8006164647265737300427573790000000006
:10A9C8004D6178696D756D20636F6E6E656374692E
:10A9D8006F6E20636F756E74206578636565646556
:10A9E800640000004E6F7420656E6F756768207292
:10A9F80065736F757263657320666F72207468691A
:10AA080073206F7065726174696F6E0053564320CE
:10AA180068616E646C6572206D697373696E670036
:10AA2800433A5C55736572735C627269616E5C73FC
:10AA380072635C626C652D66726F6D2D73637261F3
:10AA48007463685C70617274335C626C655F6164C6
:10AA5800762E636300000000416476657274697342
:10AA6800696E6720636F6E66696775726564202E0C
:10AA78002E000000494E464F3A2025733A25643A85
:10AA88002025730A000000003637323364663665C5
:10AA98002D383264352D343739622D383431362D1E
:10AAA8003534616332303364336536650000000045
:10AAB80057726F6E6720555549442073697A65004F
:10AAC800433A5C55736572735C627269616E5C735C
:10AAD80072635C626C652D66726F6D2D7363726153
:10AAE8007463685C70617274335C6164765F686516
:10AAF8006C7065722E68000057726F6E672055552E
:10AB0800494420666F726D617420666F72207368A5
:10AB18006F7274205555494400000000010100007F
:10AB28005269736B206F6620737461636B206F7654
:10AB38006572666C6F770000446973636F6E6E654B
:10AB4800637465642C204164766572746973696EF8
:10AB58006720726573746172746564004465766910
:10AB6800636520636F6E6E65637465642C20416451
:10AB7800766572746973696E672073746F70706537
:10AB880064000000506879207570646174652072F3
:10AB98006571756573746564202D2077696C6C2008
:10ABA80072656A6563740000506879207365742063
:10ABB800746F2074783D25642C2072783D256400DC
:10ABC8004D54552065786368616E676520726571BC
:10ABD8007565737420726563656976656400000045
:10ABE80048616420746F207265747279204D5455E1
:10ABF80020726573706F6E73650000004D545520A8
:10AC080073657420746F2025640000004576656EB6
:10AC180074203078257820726563656976656420CC
:10AC280077697468206C656E6774682025640A000B
:10AC3800433A5C55736572735C627269616E5C73EA
:10AC480072635C626C652D66726F6D2D73637261E1
:10AC58007463685C70617274335C626C655F6861B0
:10AC68006E646C65722E636300000000536F667437
:10AC7800446576696365207265706F7274656420D7
:10AC8800256420627974657320667265650A000020
:10AC980000300020433A5C55736572735C627269D8
:10ACA800616E5C7372635C626C652D66726F6D2D8C
:10ACB800736372617463685C70617274335C6D6134
:10ACC800696E2E6363000000536F6674446576698D
:10ACD8006365207374617274656400004E616D650C
:10ACE80020746F6F206C6F6E6700000057726F6E74
:10ACF800672055554944207479706500416767722B
:10AD0800656761746520746F6F206C6F6E670000F3
:10AD18004246530030313233343536373839616280
:10AD280063646566303132333435363738394142F9
:04AD38004344454605
:0CAD3C000090D003FF00000018AD0100E3
:0400000310009685CE
:00000001FF
