:020000021000EC
:10900000000001205D9701008D9701008F970100FE
:1090100091970100939701009597010000000000CF
:109020000000000000000000000000009797010011
:1090300099970100000000009B9701009D97010097
:10904000A1970100A3970100A5970100A797010030
:10905000A9970100AB970100AD970100AF97010000
:10906000B1970100B3970100B5970100B7970100D0
:10907000B9970100BB970100BD970100BF970100A0
:10908000C1970100C3970100C5970100C797010070
:10909000C9970100CB970100CD970100CF97010040
:1090A000D1970100D3970100D5970100D797010010
:1090B000D9970100DB9701009F9701009F9701005E
:1090C000DD970100DF970100E1970100E3970100C0
:0C90D000E5970100E7970100E997010017
:1090DC00024B034A1A6000BF704700BF00200020FB
:1090EC000090D00308B500F021F90346002B06D000
:1090FC007E4B1B681B0A7E4A03F01F03136000F0B3
:10910C0041F90346002B02D07A4B7B4A1A6000F0DF
:10911C0055F90346002B06D0784B1B685B0B784A3D
:10912C0003F00703136000F075F90346002B05D01C
:10913C00744BDB68734A23F08073D36000F086F9BC
:10914C000346002B0ED04FF080430022C3F80C21B5
:10915C004FF080430022C3F810214FF080430022CF
:10916C00C3F8382500F09EF90346002B02D0664B5D
:10917C0003221A6000F0B2F90346002B0BD0634BAC
:10918C0005221A60624B01221A60624B00221A609F
:10919C00614B3F221A6000F0BDF90346002B76D0DC
:1091AC004FF080535D4AD3F80434C2F820354FF0A9
:1091BC0080535A4AD3F80834C2F824354FF0805300
:1091CC00564AD3F80C34C2F828354FF08053534A22
:1091DC00D3F81034C2F82C354FF080534F4AD3F8E3
:1091EC001434C2F830354FF080534C4AD3F818344D
:1091FC00C2F834354FF08053484AD3F81C34C2F8C7
:10920C0040354FF08053454AD3F82034C2F84435EA
:10921C004FF08053414AD3F82434C2F848354FF00C
:10922C0080533E4AD3F82834C2F84C354FF0805363
:10923C003A4AD3F82C34C2F850354FF08053374AA1
:10924C00D3F83034C2F854354FF08053334AD3F846
:10925C003434C2F860354FF08053304AD3F8383488
:10926C00C2F864354FF080532C4AD3F83C34C2F822
:10927C0068354FF08053294AD3F84034C2F86C3526
:10928C004FF08053254AD3F84434C2F8703500F0BF
:10929C005DF90346002B05D0214B1B68214A03F0D6
:1092AC004F03136000F07EF90346002B0DD04FF0F6
:1092BC008043D3F8003403F00103002B05D04FF0AA
:1092CC0080436FF00102C3F80024174BD3F88830A9
:1092DC00154A43F47003C2F88830BFF34F8FBFF3C5
:1092EC006F8FFFF7F5FE00BF08BD00BF2403001011
:1092FC004035014074C007400DF0ADBA4402001077
:10930C003C050040F0ED00E0A00500401056004088
:10931C0088560040185600401456004000C00040CB
:10932C0058020010E40E004000ED00E0124B1B68E8
:10933C00DBB2062B1DD1114B1B6803F00F03002B66
:10934C0017D10F4B1B6803F0F003302B01D1012315
:10935C0010E00B4B1B6803F0F003402B01D10123F1
:10936C0008E0074B1B6803F0F003502B01D10123DD
:10937C0000E0002318467047E00F00F0E40F00F007
:10938C00E80F00F00A4B1B68DBB2062B0DD1094B22
:10939C001B6803F00F03002B07D1074B1B6803F06E
:1093AC00F003302B01D1012300E000231846704755
:1093BC00E00F00F0E40F00F0E80F00F0124B1B6818
:1093CC00DBB2062B1DD1114B1B6803F00F03002BD6
:1093DC0017D10F4B1B6803F0F003302B01D1012385
:1093EC0010E00B4B1B6803F0F003402B01D1012361
:1093FC0008E0074B1B6803F0F003502B01D101234D
:10940C0000E0002318467047E00F00F0E40F00F076
:10941C00E80F00F00A4B1B68DBB2062B0DD1094B91
:10942C001B6803F00F03002B07D1074B1B6803F0DD
:10943C00F003302B01D1012300E0002318467047C4
:10944C00E00F00F0E40F00F0E80F00F0124B1B6887
:10945C00DBB2062B1DD1114B1B6803F00F03002B45
:10946C0017D10F4B1B6803F0F003302B01D10123F4
:10947C0010E00B4B1B6803F0F003402B01D10123D0
:10948C0008E0074B1B6803F0F003502B01D10123BC
:10949C0000E0002318467047E00F00F0E40F00F0E6
:1094AC00E80F00F00A4B1B68DBB2062B0DD1094B01
:1094BC001B6803F00F03002B07D1074B1B6803F04D
:1094CC00F003302B01D1012300E000231846704734
:1094DC00E00F00F0E40F00F0E80F00F00A4B1B68FF
:1094EC00DBB2062B0DD1094B1B6803F00F03002BCD
:1094FC0007D1074B1B6803F0F003302B01D101237C
:10950C0000E0002318467047E00F00F0E40F00F075
:10951C00E80F00F00A4B1B68DBB2062B0DD1094B90
:10952C001B6803F00F03002B07D1074B1B6803F0DC
:10953C00F003502B01D1012300E0002318467047A3
:10954C00E00F00F0E40F00F0E80F00F0124B1B6886
:10955C00DBB2062B1DD1114B1B6803F00F03002B44
:10956C0017D10F4B1B6803F0F003302B01D10123F3
:10957C0010E00B4B1B6803F0F003402B01D10123CF
:10958C0008E0074B1B6803F0F003502B01D10123BB
:10959C0000E0002318467047E00F00F0E40F00F0E5
:1095AC00E80F00F0124B1B68DBB2062B1DD1114BE0
:1095BC001B6803F00F03002B17D10F4B1B6803F034
:1095CC00F003302B01D1012310E00B4B1B6803F08F
:1095DC00F003402B01D1012308E0074B1B6803F07B
:1095EC00F003502B01D1012300E0002318467047F3
:1095FC00E00F00F0E40F00F0E80F00F034493548BC
:10960C000A1A02D0072291438D46334933480A1A6D
:10961C0006D00722914381F30988022282F3148831
:10962C002F483049304A00F042F830483049314A2E
:10963C0000F03DF830483149314A00F038F83148F3
:10964C003149324A00F033F831483249324A00F09D
:10965C002EF832483249334A00F029F8324833495F
:10966C00334A00F024F833483349002200F02AF83A
:10967C0032483349002200F025F832483249091AA1
:10968C00082902DB0022026041601F481F49884202
:10969C0005D00268043003B4904703BCF7E7002000
:1096AC008646EC4600200021284A9047FEE7884277
:1096BC0007D0521A05D0037801300B700131013AF2
:1096CC00F9D17047884202D002700130FAE7704736
:1096DC000000012000F80020000001200000012003
:1096EC0014A601000020002004200020EC970100AB
:1096FC00EC97010044A3010014A6010000200020F7
:10970C000020002044A3010044A3010044A3010055
:10971C0044A3010044A3010044A3010044A301009D
:10972C0044A3010014A6010018A6010090240020F7
:10973C00902400200420002090240020902400205D
:10974C009024002090240020902500204D9B0100A7
:10975C0008484FF00701884385460748804707486B
:10976C00016841F470010160BFF34F8FBFF36F8F3D
:10977C00FFF744BF00000120F190010088ED00E0EC
:10978C00FEE7FEE7FEE7FEE7FEE7FEE7FEE7FEE7A5
:10979C00FEE7FEE7FEE7FEE7FEE7FEE7FEE7FEE795
:1097AC00FEE7FEE7FEE7FEE7FEE7FEE7FEE7FEE785
:1097BC00FEE7FEE7FEE7FEE7FEE7FEE7FEE7FEE775
:1097CC00FEE7FEE7FEE7FEE7FEE7FEE7FEE7FEE765
:1097DC00FEE7FEE7FEE7FEE7FEE7FEE7FEE700BF7B
:1097EC0000B583B01F4B0193019B02221A61019BB0
:1097FC0002225A61019B1C4A9A61019B1B4ADA6145
:10980C00019B4FF480621A62019B00229A62019BB9
:10981C0000225A62019B0022DA62019B124A9A646E
:10982C00019B134ADA64019B10221A65019B0022EA
:10983C009A65019B00225A65019B0022DA65019B07
:10984C0007330C49184600F0DCFA019B0A4918460C
:10985C0000F0D7FA019B20229A7100BF03B05DF88B
:10986C0004FB00BF0420002044A301007C20002046
:10987C007C24002050A3010054A3010000B589B042
:10988C0003900291019200230693039BDB680593DE
:10989C00039B1B690493049A059B9A4205D9049A6D
:1098AC00059BD31A013B079307E0039B9A68049925
:1098BC00059BCB1A1344013B0793039B9A68059BAA
:1098CC00D31A079A934228BF13460793079A019B12
:1098DC00934228BF13460793039B5A68059B134476
:1098EC00079A0299184600F063FA069A079B1344EC
:1098FC000693029A079B13440293019A079BD31A6F
:10990C000193059A079B13440593039B9B68059A47
:10991C009A4201D100230593039B059ADA60019BBF
:10992C00002BB5D1069B184609B05DF804FB00B5B9
:10993C0089B0039002910192039BDB680793039B10
:10994C009A68079BD31A0693069A019B9A420ED9E2
:10995C00039B5A68079B1344019A0299184600F01E
:10996C0027FA079A019B1A44039BDA601AE0069BBC
:10997C000593039B5A68079B1344059A0299184652
:10998C0000F016FA019A069BD31A0593039B5868AC
:10999C00029A069B1344059A194600F009FA039B98
:1099AC00059ADA6000BF09B05DF804FB86B001903F
:1099BC00019B1B690493019BDB680393049A039B33
:1099CC009A4208D8019B9A68039BD21A049B1344B1
:1099DC00013B059304E0049A039BD31A013B0593C6
:1099EC00059B184606B0704700B589B003900291EC
:1099FC000192029B0693039B5A1C13465B00134473
:109A0C00DB001F4A13440593059B5B69012B17D0A0
:109A1C00002B02D0022B23D029E00598FFF7C6FFBC
:109A2C000490049A019B9A4202D20023079321E0EE
:109A3C00019B0793019A06990598FFF778FF19E0A7
:109A4C000598FFF7B3FF0490019A049B934228BF3B
:109A5C0013460793079A06990598FFF768FF09E0E4
:109A6C00019A06990598FFF709FF079002E0002379
:109A7C00079300BF079B184609B05DF804FB00BFB5
:109A8C000420002000B587B00390029101920D4B89
:109A9C001B78002B01D1FFF7A3FEEFF311834FF0DE
:109AAC00200181F311880593019A02990398FFF71D
:109ABC009BFF0490059B83F31188049B184607B009
:109ACC005DF804FB042000200FB400B5A3B025AB57
:109ADC00009301A8009B249A802100F05BF921904F
:109AEC00219A01AB19460020FFF7CCFF219B1846A9
:109AFC0023B05DF804EB04B070470000BFF34F8F48
:109B0C00054BDB6803F4E0620349044B1343CB6061
:109B1C00BFF34F8F00BFFDE700ED00E00400FA0536
:109B2C0008B5FFF7EBFF42F20303184608BD41DF0F
:109B3C00704700BF184610DF704700BF1846000082
:109B4C0000B585B001238DF8003000238DF801306D
:109B5C0000238DF8023007238DF803306B4614492F
:109B6C001846FFF7E8FF03460393039B0293029BFF
:109B7C00002B06D0029A54210E4800F035F8FFF75E
:109B8C00CFFF55210C48FFF79FFF00F017F8FFF7A8
:109B9C00CEFF03460193019B002B06D0019A59215D
:109BAC00044800F021F8FFF7BBFF00F009F8EEE7DE
:109BBC001D9D01005CA3010090A3010000BF704734
:109BCC0000BF704700B585B0039002910192019BD4
:109BDC00029A03990348FFF777FF00BF05B05DF8C1
:109BEC0004FB00BFDCA3010000B587B00390029119
:109BFC000192019B013B122B5BD801A252F823F07E
:109C0C00599C01005F9C0100659C01006B9C01004C
:109C1C00719C0100779C01007D9C0100839C0100DC
:109C2C00BF9C0100899C0100BF9C01008F9C01001E
:109C3C00959C01009B9C0100A19C0100A79C01002C
:109C4C00AD9C0100B39C0100B99C01001E4B059317
:109C5C0031E01E4B05932EE01D4B05932BE01D4B65
:109C6C00059328E01C4B059325E01C4B059322E043
:109C7C001B4B05931FE01B4B05931CE01A4B0593E4
:109C8C0019E01A4B059316E0194B059313E0194B89
:109C9C00059310E0184B05930DE0184B05930AE063
:109CAC00174B059307E0174B059304E0164B0593F0
:109CBC0001E0164B0593059A02990398FFF782FF72
:109CCC0000BF07B05DF804FBF0A3010004A4010081
:109CDC001CA401002CA401003CA4010048A4010018
:109CEC0058A401006CA4010090A40100A0A40100E0
:109CFC00B4A40100BCA40100D8A40100ECA4010090
:109D0C00FCA4010004A5010028A5010050A5010038
:109D1C0000B585B0039002910192039B012B05D0F5
:109D2C00039B41F20102934205D00AE002990948D3
:109D3C00FFF7CAFE0AE0019A02990748FFF7C4FE32
:109D4C0004E0029A03990548FFF7BEFE00BF05B078
:109D5C005DF804FB60A5010088A50100C4A5010005
:109D6C0038B504460846A26842B1236861685D1C98
:109D7C008D4208BF00208B4208D2D054E3682BB12F
:109D8C0021686268914201D22146984723680133C9
:109D9C00236038BD10B584B01446029000220392A3
:109DAC0001911A462146684600F04EF804B010BDE9
:109DBC00844640EA010313F0030F18D18446202A8D
:109DCC000BD32DE9F007B1E8F807A0E8F807A2F1EA
:109DDC002002202AF7D2BDE8F007042A07D351F855
:109DEC00043B40F8043BA2F10402042AF7D2002AF7
:109DFC0005D011F8013B00F8013B013AF9D160465E
:109E0C007047024610F0030F16D111F0030F13D157
:109E1C002DE9F0004FF001374FF0803351F8044B2F
:109E2C00A4EB070525EA04051D4002D142F8044BBA
:109E3C00F4E7A1F10401F0BC11F8013B02F8013B7D
:109E4C00002BF9D1704700002DE9F04F89B007467F
:109E5C000D46039200230360DFF8D893DFF8D8B3E4
:109E6C00DFF8D8A348E2002209E0202804D02328F8
:109E7C0018D142F0800201E042F040022E463546F5
:109E8C0015F8010B272807D0EFD92B2807D05E280F
:109E9C0008D142F48052F1E742F40042EEE742F07E
:109EAC002002EBE774280BD07A2809D0682809D156
:109EBC002878682800F08380B51C42F0040201E089
:109ECC002878B51C78287FD8DFE810F02E027E00A9
:109EDC007E007E007E007E007E007E007E007E0086
:109EEC007E007E007E007E007E007E007E007E0076
:109EFC007E007E007E007E007E007E007E007E0066
:109F0C007E007E007E007E007E007E007E007E0055
:109F1C007E007E007E008B007E007E007E007E0038
:109F2C007E007E007E007E007E007E007E007E0035
:109F3C007E007E007E007E007E007E007E007E0025
:109F4C007E007E007E007E007E007E007E007E0015
:109F5C007E007E007E007E007E007E007E007E0005
:109F6C007E007E007E007E007E007E007E007E00F5
:109F7C007E007E007E007E007E007E00CD007E0096
:109F8C007E007E007E007E007E007E007E007E00D5
:109F9C007E009000E1007E007E007E007E00E100ED
:109FAC007E007E007E007E009800DA00B9007E0004
:109FBC007E00A9007E001D017E007E00CF0042F0D5
:109FCC000802687802357DE7994B1E68002E00F078
:109FDC00938103AB01934FF0FF3300933946B047A5
:109FEC008AE125213846FFF7BBFE85E1039B1A1D4C
:109FFC00039219783846FFF7B3FE7DE112F0080F93
:10A00C0006D03A68039B191D03911B681A7073E103
:10A01C00039B1A1D03921B683A681A606CE1039B40
:10A02C001A1D03921C682178002900F065813846BE
:10A03C00FFF796FE14F8011F0029F8D15CE1039B91
:10A04C00191D03911B6802F0800100290CBF00262A
:10A05C00232642F48071002B40F0CD8030238DF804
:10A06C0014300124F9E042F4005212F0800F57D062
:10A07C0043F2780643F25803782818BF1E4643E093
:10A08C0002F08003002B0CBF002630263CE042F48B
:10A09C008041039B1C1D03941B6812F0040F41D1DB
:10A0AC0012F0080F3FD0DBB212F0200F40F03F81CE
:10A0BC0012F0400440F03D815838202800F20F8106
:10A0CC00DFE810F097000D010D010D010D010D01E0
:10A0DC000D010D010D010D010D010D01DC000D0136
:10A0EC000D010D010D01DC000D010D010D010D0126
:10A0FC000D01AE0097000D010D010D010D01DC00ED
:10A10C000D010D0197000026039B191D03911B687F
:10A11C0012F0040F54D112F0080F18BFDBB250E04C
:10A12C000026F1E71BB2002BBEDA5B422D26583815
:10A13C00202800F2D68001A252F820F063A0010082
:10A14C00EFA20100EFA20100EFA20100EFA20100BB
:10A15C00EFA20100EFA20100EFA20100EFA20100AB
:10A16C00EFA20100EFA20100EFA201007DA201000D
:10A17C00EFA20100EFA20100EFA20100EFA201008B
:10A18C007DA20100EFA20100EFA20100EFA20100ED
:10A19C00EFA20100EFA201002FA2010063A00100B9
:10A1AC00EFA20100EFA20100EFA20100EFA201005B
:10A1BC007DA20100EFA20100EFA2010063A001004B
:10A1CC009BB2583820287ED8DFE800F0117D7D7DC9
:10A1DC007D7D7D7D7D7D7D7D517D7D7D7D517D7DFB
:10A1EC007D7D7D2B117D7D7D7D517D7D1100114609
:10A1FC0031E700262FE705AA002401F4005008E0FF
:10A20C0003F00F011BF801C002F801CB01341B094C
:10A21C0023D00028F4D003F00F011AF801C0F3E7A3
:10A22C0000266BB930238DF81430012415E000BFE3
:10A23C008C240020CDCCCCCCF4A5010004A60100CC
:10A24C001A4605A9002403F00703303301F8013B3B
:10A25C000134D2081346002AF5D1FF2E35D8C6BBDF
:10A26C00002C49DD0DF11408013C44443CE011463E
:10A27C0033B930238DF814300124EEE70026F7E7CC
:10A28C00002401F400404FF02C0E10E008AA02EB61
:10A29C00040CA9FB0321C90801EB8102A3EB4202C8
:10A2AC0030320CF80C2C0134092BD6D90B46002873
:10A2BC00ECD004F00302032AE8D108AA224402F8E5
:10A2CC000CEC0134E2E70024C7E7310A3846FFF70B
:10A2DC0047FD06F07F013846FFF742FDC0E7002638
:10A2EC00BDE70024F5E73446264616F80119384632
:10A2FC00FFF736FD4445F6D12E4616F8011B39B151
:10A30C0025293FF4B0AD3846FFF72AFD3546F3E773
:10A31C00BB682BB13A6879688A423CBF00219954DA
:10A32C00386809B0BDE8F08F4FF0FF30F9E72B2605
:08A33C00FDE62026FBE600BF50
:10A344005465726D696E616C0000000052545400D3
:10A354005345474745520000433A5C557365727351
:10A364005C627269616E5C7372635C626C652D66BB
:10A37400726F6D2D736372617463685C7061727463
:10A38400325C6D61696E2E6300000000433A5C55D7
:10A39400736572735C627269616E5C7372635C6232
:10A3A4006C652D66726F6D2D736372617463685C86
:10A3B40070617274325C6D61696E2E633A25643A21
:10A3C40020536F66744465766963652073746172A3
:10A3D4007465640A000000004572726F7220696E31
:10A3E4002025733A25643A2025730A0053564320E6
:10A3F40068616E646C6572206D697373696E670061
:10A40400536F6674446576696365206E6F74206566
:10A414006E61626C65640000496E7465726E616C95
:10A42400206572726F7200004F7574206F66206D24
:10A43400656D6F72790000004E6F7420666F756EE3
:10A44400640000004E6F7420737570706F727465D1
:10A4540064000000496E76616C6964207061726109
:10A464006D657465720000004F7065726174696F88
:10A474006E206E6F7420616C6C6F77656420696EFA
:10A48400207468697320737461746500496E766121
:10A494006C696420666C616773000000496E7661C4
:10A4A4006C696420646174612073697A65000000DA
:10A4B40054696D656F7574004E756C6C20706F69AE
:10A4C4006E746572206E6F7420616C6C6F77656456
:10A4D40000000000466F7262696464656E206F70EC
:10A4E40065726174696F6E00496E76616C6964208F
:10A4F40061646472657373004275737900000000CF
:10A504004D6178696D756D20636F6E6E65637469F6
:10A514006F6E20636F756E7420657863656564651E
:10A52400640000004E6F7420656E6F75676820725A
:10A5340065736F757263657320666F7220746869E2
:10A5440073206F7065726174696F6E00556E6B6E07
:10A554006F776E206572726F7200000048617264DA
:10A564006661756C7420617373657274696F6E20B3
:10A5740061742061646472657373203078253038A7
:10A58400580A00004D656D6F7279206163636573CD
:10A59400732076696F6C6174696F6E2061742061D9
:10A5A4006464726573732030782530385820616391
:10A5B40063657373696E67203078253038580A00F4
:10A5C400556E6B6E6F776E20686172646661756C30
:10A5D40074202849443D2564292061742061646401
:10A5E40072657373203078253038580A00000000F3
:10A5F40030313233343536373839616263646566F5
:10A6040030313233343536373839414243444546A4
:04A614000090D003DF
:040000031000975DF5
:00000001FF
