:020000021000EC
:109000000000012085960100B5960100B796010089
:10901000B9960100BB960100BD960100000000005A
:10902000000000000000000000000000BF960100EA
:10903000C196010000000000C3960100C596010022
:10904000C9960100CB960100CD960100CF96010094
:10905000D1960100D3960100D5960100D796010064
:10906000D9960100DB960100DD960100DF96010034
:10907000E1960100E3960100E5960100E796010004
:10908000E9960100EB960100ED960100EF960100D4
:10909000F1960100F3960100F5960100F7960100A4
:1090A000F9960100FB960100FD960100FF96010074
:1090B0000197010003970100C7960100C7960100C0
:1090C0000597010007970100099701000B97010020
:0C90D0000D9701000F970100119701009F
:1090DC000F4B1B78062B01D0002070470D4B1B68E3
:1090EC0013F00F0F0BD10C4B1B6803F0F003302B5C
:1090FC0007D0402B07D0502B07D000207047002002
:10910C00704701207047012070470120704700BF55
:10911C00E00F00F0E40F00F0E80F00F00B4B1B78B1
:10912C00062B01D000207047094B1B6813F00F0F62
:10913C0007D1084B1B6803F0F003302B03D0002041
:10914C007047002070470120704700BFE00F00F00F
:10915C00E40F00F0E80F00F00F4B1B78062B01D04A
:10916C00002070470D4B1B6813F00F0F0BD10C4BED
:10917C001B6803F0F003302B07D0402B07D0502B8B
:10918C0007D0002070470020704701207047012055
:10919C0070470120704700BFE00F00F0E40F00F0B3
:1091AC00E80F00F00B4B1B78062B01D0002070470A
:1091BC00094B1B6813F00F0F07D1084B1B6803F00A
:1091CC00F003302B03D000207047002070470120A3
:1091DC00704700BFE00F00F0E40F00F0E80F00F064
:1091EC000F4B1B78062B01D0002070470D4B1B68D2
:1091FC0013F00F0F0BD10C4B1B6803F0F003302B4B
:10920C0007D0402B07D0502B07D0002070470020F0
:10921C00704701207047012070470120704700BF44
:10922C00E00F00F0E40F00F0E80F00F00B4B1B78A0
:10923C00062B01D000207047094B1B6813F00F0F51
:10924C0007D1084B1B6803F0F003302B03D0002030
:10925C007047002070470120704700BFE00F00F0FE
:10926C00E40F00F0E80F00F00B4B1B78062B01D03D
:10927C0000207047094B1B6813F00F0F07D1084BE8
:10928C001B6803F0F003302B03D000207047002044
:10929C0070470120704700BFE00F00F0E40F00F0B2
:1092AC00E80F00F00B4B1B78062B01D00020704709
:1092BC00094B1B6813F00F0F07D1084B1B6803F009
:1092CC00F003502B03D00020704700207047012082
:1092DC00704700BFE00F00F0E40F00F0E80F00F063
:1092EC000F4B1B78062B01D0002070470D4B1B68D1
:1092FC0013F00F0F0BD10C4B1B6803F0F003302B4A
:10930C0007D0402B07D0502B07D0002070470020EF
:10931C00704701207047012070470120704700BF43
:10932C00E00F00F0E40F00F0E80F00F00F4B1B789B
:10933C00062B01D0002070470D4B1B6813F00F0F4C
:10934C000BD10C4B1B6803F0F003302B07D0402BD8
:10935C0007D0502B07D00020704700207047012009
:10936C007047012070470120704700BFE00F00F0EC
:10937C00E40F00F0E80F00F0014B024A1A6070474E
:10938C00003000200090D00308B5FFF7A1FE28B1F3
:10939C00574B1B68C3F30423564A1360FFF7BEFEFA
:1093AC0010B1554B554A1A60FFF7D6FE28B1544BF5
:1093BC001B68C3F34233534A1360FFF7F3FE20B12B
:1093CC00514AD36823F08073D360FFF709FF40B193
:1093DC004FF080430022C3F80C21C3F81021C3F8CE
:1093EC003825FFF723FF10B1484B03221A60FFF713
:1093FC003BFF58B1464B05221A60783301221A60A4
:10940C00703B00221A60043B3F221A60FFF74AFFB0
:10941C00002846D04FF08052D2F804143D4BC3F8CC
:10942C002015D2F80814C3F82415D2F80C14C3F87C
:10943C002815D2F81014C3F82C15D2F81414C3F84C
:10944C003015D2F81814C3F83415D2F81C14C3F81C
:10945C004015D2F82014C3F84415D2F82414C3F8DC
:10946C004815D2F82814C3F84C15D2F82C14C3F8AC
:10947C005015D2F83014C3F85415D2F83414C3F87C
:10948C006015D2F83814C3F86415D2F83C14C3F83C
:10949C006815D2F84014C3F86C15D2F84424C3F8FC
:1094AC007025FFF71DFF28B11B4B1B6803F04F0302
:1094BC001A4A1360FFF73AFF60B14FF08043D3F8BC
:1094CC00003413F0010F05D04FF080436FF0010210
:1094DC00C3F80024124AD2F8883043F47003C2F85F
:1094EC008830BFF34F8FBFF36F8FFFF745FF08BD79
:1094FC00240300104035014074C007400DF0ADBA94
:10950C00440200103C050040F0ED00E0A0050040D6
:10951C001056004000C0004058020010E40E0040FD
:10952C0000ED00E0344935480A1A02D00722914375
:10953C008D46334933480A1A06D00722914381F3EA
:10954C000988022282F314882F483049304A00F0EF
:10955C0042F830483049314A00F03DF83048314942
:10956C00314A00F038F831483149324A00F033F8CA
:10957C0031483249324A00F02EF832483249334AE7
:10958C0000F029F832483349334A00F024F83348C4
:10959C003349002200F02AF832483349002200F007
:1095AC0025F832483249091A082902DB00220260E8
:1095BC0041601F481F49884205D00268043003B43B
:1095CC00904703BCF7E700208646EC4600200021BC
:1095DC00284A9047FEE7884207D0521A05D00378F4
:1095EC0001300B700131013AF9D17047884202D039
:1095FC0002700130FAE770470000012000F80020EB
:10960C00000001200000012064B1010000300020A6
:10961C0068300020149701001497010070AA010013
:10962C0064B10100003000200030002070AA01005D
:10963C0070AA01007CAA010070AA010070AA0100A6
:10964C0070AA01007CAA01007CAA010064B101008F
:10965C00CCB101007C3500207C3500206830002026
:10966C007C3500207C3500207C3500207C350020AA
:10967C007C360020DDA0010008484FF0070188432C
:10968C008546074880470748016841F4700101602E
:10969C00BFF34F8FBFF36F8FFFF744BF0000012064
:1096AC009593010088ED00E0FEE7FEE7FEE7FEE79C
:1096BC00FEE7FEE7FEE7FEE7FEE7FEE7FEE7FEE776
:1096CC00FEE7FEE7FEE7FEE7FEE7FEE7FEE7FEE766
:1096DC00FEE7FEE7FEE7FEE7FEE7FEE7FEE7FEE756
:1096EC00FEE7FEE7FEE7FEE7FEE7FEE7FEE7FEE746
:1096FC00FEE7FEE7FEE7FEE7FEE7FEE7FEE7FEE736
:08970C00FEE7FEE7FEE700BFE7
:109714000369C268934204D88068801A0344581EBF
:1097240070479B1A581E70472DE9F8430446884633
:109734001646C5688768A7EB0509914507D94068AF
:10974400284400F0C9FE3544E560BDE8F88340686C
:109754004A46284400F0C0FEED1B35442A4608EB77
:109764000901606800F0B8FEE560EEE72DE9F84312
:10977400064688461746C5684FF0000918E0641B82
:10978400621EB3685C1B944228BF1446BC4228BFC7
:109794003C46706822464146284400F09DFEA144A0
:1097A400A0443F1B2544B368AB4209D0F5604FB1D8
:1097B4003469A542E3D3B268641B1444621EE0E733
:1097C4000025F3E74846BDE8F883000010B5114CC6
:1097D400022323616361104AA261104BE3614FF4D9
:1097E400806323620023A3626362E362A2640C4A7F
:1097F400E26410222265A3656365E3650949E01DFF
:1098040000F093FE0849204600F08FFE2023A37148
:1098140010BD00BF683000207CAA0100F030002099
:10982400E030002088AA01008CAA0100F8B50F4698
:109834001646184B451C05EB450503EBC50500EB27
:10984400400003EBC000C46A012C11D0022C1CD0D0
:1098540014B100242046F8BD2846FFF759FF86427C
:10986400F8D8324639462846FFF75EFF3446F1E71A
:109874002846FFF74DFF3446864228BF0446224659
:1098840039462846FFF750FFE4E72846FFF76EFF06
:109894000446DFE768300020F8B504460D46164656
:1098A400094B1B786BB1EFF311874FF0200181F363
:1098B4001188324629462046FFF7B8FF87F31188FE
:1098C400F8BDFFF783FFEEE7683000200FB410B552
:1098D400A2B024AB53F8042B0193802102A800F01A
:1098E400EDFD0446024602A90020FFF7D5FF2046FD
:1098F40022B0BDE8104004B07047000008B513461C
:109904000A4601460148FFF7E1FF08BD94AA010099
:1099140030B595B004460D46531E122B30D8DFE8FF
:1099240003F00A350C131517191B2F1D2F1F2123A4
:109934002527292B2D00164A00E0164A29462046E1
:10994400FFF7DCFF15B030BD134AF7E7134AF5E71C
:10995400134AF3E7134AF1E7134AEFE7134AEDE733
:10996400134AEBE7134AE9E7134AE7E7134AE5E743
:10997400134AE3E7134AE1E7134ADFE7134ADDE753
:109984001349684600F085FD6A46D7E7114AD5E7D2
:10999400F4AB0100C0AA0100D0AA0100E0AA0100B2
:1099A400ECAA0100FCAA010010AB010034AB0100D9
:1099B40044AB010058AB010060AB01007CAB01007B
:1099C40090AB0100A0AB0100A8AB0100CCAB01003F
:1099D40008AC0100A8AA010008B5012809D041F289
:1099E4000103984209D00A4601460648FFF76EFF74
:1099F40002E00548FFF76AFF08BD0448FFF766FF69
:109A0400FAE700BF80AC01001CAC010044AC0100CB
:109A140072DF704773DF704710B5164B00221A606F
:109A24005A60DA601A615A6101221A702021996021
:109A34005A75114BD87F114BDB7F8BB10F4A1049FC
:109A44000D4C0C6088808A608B810A4A0D48FFF7B0
:109A5400DFFF024630B131210B48FFF759FFFEE723
:109A64000022ECE7094B322207490948FFF72EFF91
:109A740010BD00BF003500203835002058350020C7
:109A8400F034002004300020B0AC0100E4AC01004C
:109A940000AD010008B50121024B1878FFF7BAFFA9
:109AA40008BD00BF043000204378313B352B1CD85F
:109AB400DFE803F0593D3F41434547494B1B1B1B1E
:109AC4001B1B1B1B4D4F515355571B1B1B1B1B1B98
:109AD4001B1B1B1B1B1B1B1B1B1B1B1B1B1B1B1BD2
:109AE4001B1B1B1B4D4F5153555700220378313B11
:109AF400352B3AD8DFE803F0593D3F414345474908
:109B04004B393939393939394D4F51535557393919
:109B140039393939393939393939393939393939B1
:109B240039393939393939394D4F51535557022259
:109B3400DCE70322DAE70422D8E70522D6E7062287
:109B4400D4E70722D2E70822D0E70922CEE70A2287
:109B5400CCE70B22CAE70C22C8E70D22C6E70E2287
:109B6400C4E70F22C2E70122C0E7002002EB001085
:109B740070470220FAE70320F8E70420F6E70520FF
:109B8400F4E70620F2E70720F0E70820EEE70920D3
:109B9400ECE70A20EAE70B20E8E70C20E6E70D20D3
:109BA400E4E70E20E2E70F20E0E70120DEE7000013
:109BB400012800D0704738B54FF6FF73994200D0A2
:109BC40038BD0023394AD37700E00133384A9A5C20
:109BD400002AFAD1062B09D0242B01D1002306E058
:109BE400344A56213448FFF789FEFEE70023304A01
:109BF4009A5C0AB10133FAE7062B50D02B4C1023A0
:109C0400E3772E4D2846FFF74FFF2070A81EFFF77D
:109C14004BFF6070281FFFF747FFA070A81FFFF7D6
:109C240043FFE070A5F10800FFF73EFF2071A5F1A6
:109C34000A00FFF739FF6071A5F10D00FFF734FF4B
:109C4400A071A5F10F00FFF72FFFE071A5F112003D
:109C5400FFF72AFF2072A5F11400FFF725FF6072B9
:109C6400A5F11700FFF720FFA072A5F11900FFF777
:109C74001BFFE072A5F11C00FFF716FF2073A5F18E
:109C84001E00FFF711FF6073A5F12000FFF70CFF22
:109C9400A073A5F12200FFF707FFE07390E7084ADD
:109CA40058210548FFF72AFEFEE700BF18350020BB
:109CB40014AD01003CAD01004CAD010036AD010016
:109CC40084AD010008B54FF6FF710120FFF770FF66
:109CD40008BD8FDF7047B3DF7047B5DF704760DFC3
:109CE400704769DF704761DF70470000F0B5A3B0CB
:109CF40000231F932093219301228DF87C208DF85B
:109D04007E200421ADF880101C931D931E938DF8C2
:109D140070208321ADF8721019931A931B938DF858
:109D240064208DF865201693189302228DF859202B
:109D3400444A12681792D15C09B10133FBE7ADF8CC
:109D440060300023D15C09B10133FBE7ADF8623028
:109D54003D4B1A681FA92020FFF7C3FF024620B11C
:109D640047213A48FFF7D4FDFEE7374B1A681CA990
:109D74002320FFF7B6FF024620B148213348FFF7FE
:109D8400C7FDFEE7304B1A6819A94020FFF7A9FF69
:109D9400024620B149212D48FFF7BAFDFEE72A4BC0
:109DA4001A6816A94120FFF79CFF024620B14A21F8
:109DB4002648FFF7ADFDFEE7234B1F68159715A84E
:109DC400FFF78DFF04460DF10200FFF784FFBDF895
:109DD40002201F4901A800F05CFB1C4E1D4D01AB85
:109DE400562231462846FFF771FD159ABA1A1A49C8
:109DF40001A800F04EFB01AB5A2231462846FFF77A
:109E040065FD2CB122465C213046FFF781FDFEE75B
:109E1400C820FFF701FE00F079FA0DF10200FFF708
:109E24005AFFBDF802200D4901A800F032FB01AB36
:109E3400662206490748FFF749FDFFF72BFE23B0CA
:109E4400F0BD00BF08300020E8AF0100A8AD01005C
:109E5400E0AD010000AD010008AE01002CAE010030
:109E64002DE9F04399B000AF56E0002263E0884B3F
:109E7400832288498848FFF729FD6BE086218548BD
:109E8400FFF746FDFEE7502A00F0E080552A40F037
:109E9400EC80DFF80082804E804BAA224146304697
:109EA400FFF714FDE588B4F804902A467C4907F1CD
:109EB4000C0000F0EEFA07F10C03AE2241463046E6
:109EC400FFF704FD832D28BF83252A46754907F132
:109ED4000C0000F0DEFA07F10C03B12241463046D3
:109EE400FFF7F4FC29464846FFF7F7FE044611281D
:109EF40040F094806C4BB32266496748FFF7E6FC58
:109F0400F0E72020FFF788FDFFF7C4FD674B8E22A2
:109F140060496148FFF7DAFC07F15E010020FFF7B2
:109F2400E2FE052800F0B080B7F85E20931012F02E
:109F3400030F9AD0012213449B009BB2FB809A101A
:109F44000732D2086946A1EBC20295466C46B3F5C6
:109F5400805F8CD8B91D2046FFF7C5FE0246002855
:109F64008CD12288222A8ED8102A7ED3A2F1100303
:109F7400122B7AD801A151F823F000BFCD9F010024
:109F8400079F01006FA001006FA001006FA00100F6
:109F94006FA001006FA001006FA001006FA001007D
:109FA4006FA001006FA001006FA001006FA001006D
:109FB4006FA001006FA001006FA001006FA001005D
:109FC400DB9F0100F99F0100394B9222314932484D
:109FD400FFF77CFCA0E7374B97222E492E48FFF76A
:109FE40075FC354B1B88BB8107F10C01A088FFF77A
:109FF40070FE91E7A2683A81130CBB72DBB2C2F324
:10A0040007222E4907F10C0000F043FA07F10C0374
:10A01400A42220492048FFF759FC7DE740B1284895
:10A02400FFF754FC2246B6211A48FFF771FC73E788
:10A034002A46244907F10C0000F02BFA07F10C031F
:10A04400B92214491448FFF741FC65E72389E288E3
:10A054001D4907F10C0000F01CFA07F10C03C322A0
:10A064000C490D48FFF732FC56E7B7F85E30174944
:10A0740007F10C0000F00DFA07F10C03C9220549A1
:10A084000548FFF723FC47E76437BD46BDE8F08386
:10A0940050AE0100A8AD010000AD0100F0AE01001A
:10A0A40010AF01002CAF010040AF010068AE010009
:10A0B4008CAE0100B4AE0100E4AF0100D8AE0100E3
:10A0C4005CAF010084AF010094AF0100C0AF010098
:10A0D40041DF704710DF704700B583B001238DF86E
:10A0E400043000238DF805308DF8063007238DF8F1
:10A0F40007300F4901A8FFF7EDFF28B102465421AC
:10A104000C48FFF705FCFEE70B4B552209490B48A9
:10A11400FFF7DCFBFFF7EAFDFFF7DAFF024610B9B1
:10A12400FFF79EFEF8E759210248FFF7F1FBFEE72F
:10A13400DD990100ECAF01001CB0010000AD01008D
:10A1440010B50B46C27FC97F0A441E2A0ADC0022CE
:10A15400D97F91420CDDC17F9C5C445401320131B2
:10A16400C177F5E7034A38210348FFF7C7FBFEE749
:10A1740010BD00BF30B001004CAD0100012800D07B
:10A1840070474FF6FF739942FAD130B599B0002465
:10A194008DF81F4003238DF83F3002238DF82030C3
:10A1A40001238DF8213006238DF8223008A9684652
:10A1B400FFF7C6FF1D4B1D688DF85F40234600E086
:10A1C4000133EA5C002AFBD11C2B15DCDAB2911CAA
:10A1D4008DF85F1001328DF8402009228DF841205E
:10A1E400002293420EDD911CAC5C0DF1600C6144C5
:10A1F40001F8204C0132F4E70D4A95210D48FFF790
:10A204007DFBFEE710A9FFF79BFF05460A4C00689B
:10A214006968AA68EB680FC428696969AA69EB6967
:10A224000FC4064B0022DA7719B030BD0830002085
:10A2340044B001004CAD01003835002058350020F1
:10A2440008B54FF6FF710120FFF798FF08BDA8DF9E
:10A254007047AADF70470000012800D070474FF60E
:10A26400FF739942FAD1224B1A680023D15C09B1D9
:10A274000133FBE71F490B810023D15C09B1013392
:10A28400FBE71C498B810A611B4B1A680023D15CD4
:10A2940009B10133FBE719490B810023D15C09B1F2
:10A2A4000133FBE715498B810A61154B1B680022BA
:10A2B400995C09B10132FBE712490A810022995CD9
:10A2C40009B10132FBE70F498A810B610022995CD5
:10A2D40009B10132FBE70C490A81002200E0013296
:10A2E400995C0029FBD108498A810B61B6E700BF5C
:10A2F400603000200C300020643000203430002016
:10A304005C300020203000204830002000B599B097
:10A31400444B8A2244494548FFF7D8FA0DF15E02BE
:10A3240043490120FFF793FF28B102468B213E48A1
:10A33400FFF7EEFAFEE7BDF85E203E4901A800F003
:10A34400A8F801AB8D2238493848FFF7BFFA15AB9E
:10A35400394A3A49BDF85E00FFF77BFF024620B157
:10A364008F213148FFF7D4FAFEE7BDF85420344971
:10A3740001A800F08EF801AB91222B492B48FFF77E
:10A38400A5FA15AB2F4A2D49BDF85E00FFF761FF12
:10A39400024620B193212448FFF7BAFAFEE7BDF83C
:10A3A4005420274901A800F074F801AB95221E49F6
:10A3B4001E48FFF78BFA15AB234A2049BDF85E000F
:10A3C400FFF747FF024620B197211748FFF7A0FA8D
:10A3D400FEE7BDF854201A4901A800F05AF801AB71
:10A3E400992211491148FFF771FA15AB174A13491D
:10A3F400BDF85E00FFF72DFF024620B19B210A48FD
:10A40400FFF786FAFEE7BDF854200D4901A800F0D5
:10A4140040F801AB9D2204490448FFF757FA19B0EC
:10A424005DF804FB58B0010078B0010000AD0100F4
:10A4340010B10100B0B001000C30002028B10100BF
:10A44400C8B0010034300020203000204830002003
:10A4540008B54FF6FF710120FFF7FEFE08BD38B5C1
:10A4640004460846A26842B1236861685D1C8D42B7
:10A4740008BF00208B4208D2D054E3682BB1216876
:10A484006268914201D221469847236801332360D0
:10A4940038BD0EB400B586B007AA52F8041B059265
:10A4A4000390002304936FF00043029301A800F08B
:10A4B4005FF806B05DF804EB03B0704710B584B0E4
:10A4C4000C46114602900022039201941A466846F3
:10A4D40000F04EF804B010BD844640EA010313F0C6
:10A4E400030F18D18446202A0BD32DE9F007B1E8D5
:10A4F400F807A0E8F807A2F12002202AF7D2BDE865
:10A50400F007042A07D351F8043B40F8043BA2F1B6
:10A514000402042AF7D2002A05D011F8013B00F8FE
:10A52400013B013AF9D160467047024610F0030F2F
:10A5340016D111F0030F13D12DE9F0004FF00137BC
:10A544004FF0803351F8044BA4EB070525EA0405CA
:10A554001D4002D142F8044BF4E7A1F10401F0BC20
:10A5640011F8013B02F8013B002BF9D170470000C0
:10A574002DE9F04F89B007460392002303600D468E
:10A5840015F8011B002900F06082DFF85CB4DFF8E5
:10A594005CA4DFF85C9444E2002207E05E2834D136
:10A5A40042F4805201E042F0400225462C4614F861
:10A5B400010B2B28F2D81F282DD9A0F120030B2B37
:10A5C40023D801A151F823F0ABA501000FA6010087
:10A5D4000FA60100FDA501000FA601000FA60100B2
:10A5E4000FA6010003A601000FA601000FA601009B
:10A5F4000FA6010009A6010042F08002D5E742F44B
:10A604000042D2E742F02002CFE7742801D07A2832
:10A6140063D12078AC1C002800F02382A0F125032C
:10A62400DBB2532B67D8A0F12503532B63D8DFE8A3
:10A6340013F06F0062006200620062006200620058
:10A6440062006200620062006200620062006200F6
:10A6540062006200620062006200620062006200E6
:10A6640062006200620062006200620062006200D6
:10A6740062006200620062006200620062006200C6
:10A6840062006200620062006200620062006200B6
:10A694006200620062006200B00062006200620058
:10A6A4006200620062006200620062006200740084
:10A6B4001B0162006200620062001B016200620012
:10A6C400620062007C0015019D00620062008D0042
:10A6D40062001F0162006200B20068289BD12078EA
:10A6E400682803D0AC1C42F0040294E742F008024C
:10A6F400607802348FE7BB4B1D68002D00F08D811C
:10A7040003AB01934FF0FF3300933946A84784E12C
:10A7140025213846FFF7A3FE7FE1039B1A1D039210
:10A7240019783846FFF79BFE77E112F0080F06D040
:10A734003A68039B191D03911B681A706DE1039B12
:10A744001A1D03921B683A681A6066E1039B1A1D7E
:10A7540003921D682978002900F05F813846FFF7CD
:10A764007EFE15F8011F0029F8D156E1039B191D3F
:10A7740003911B6812F0800F0CBF0026232642F4BD
:10A784008072002B40F0DB8030238DF814300125DB
:10A7940031E142F4005212F0800F6BD043F278069C
:10A7A40043F25803782818BF1E4612F4804F70D025
:10A7B400039B191D03911B6812F0040F5CD01BB29C
:10A7C400002B5DDA5B422D265838202800F23B81AD
:10A7D40001A151F820F000BF87A701004BAA010096
:10A7E4004BAA01004BAA01004BAA01004BAA01008D
:10A7F4004BAA01004BAA01004BAA01004BAA01007D
:10A804004BAA01004BAA010095A901004BAA010023
:10A814004BAA01004BAA01004BAA010095A9010013
:10A824004BAA01004BAA01004BAA01004BAA01004C
:10A834004BAA01006DA9010087A701004BAA0100E2
:10A844004BAA01004BAA01004BAA010095A90100E3
:10A854004BAA01004BAA010087A7010012F0800F48
:10A864000CBF00263026A0E742F4804200269CE775
:10A8740000269AE7002698E712F0080FA0D0DBB272
:10A8840012F0200F40F0F08012F0400F09D0202683
:10A894009AE7039B191D03911B6812F0040F49D01A
:10A8A4009BB25838202800F2A58001A151F820F06D
:10A8B40087A70100F9A90100F9A90100F9A901007C
:10A8C400F9A90100F9A90100F9A90100F9A90100F8
:10A8D400F9A90100F9A90100F9A90100F9A90100E8
:10A8E40095A90100F9A90100F9A90100F9A901003C
:10A8F400F9A9010095A90100F9A90100F9A901002C
:10A90400F9A90100F9A90100F9A901006DA9010043
:10A9140087A70100F9A90100F9A90100F9A901001B
:10A92400F9A9010095A90100F9A90100F9A90100FB
:10A9340087A7010012F0080F18BFDBB2B1E705A921
:10A94400002502F4005208E003F00F001BF8000099
:10A9540001F8010B01351B094DD0002AF4D003F096
:10A964000F001AF80000F3E723B930238DF81430F0
:10A97400012540E01A4605A9002503F007033033FA
:10A9840001F8013B0135D2081346002AF5D132E023
:10A9940023B930238DF8143001252CE0002502F46E
:10A9A40000424FF02C0E10E008A901EB050CA9FBA6
:10A9B4000310C00800EB8001A3EB410130310CF817
:10A9C4000C1C0135092B16D90346002AECD005F0DE
:10A9D40003010329E8D108A9294401F80CEC013545
:10A9E400E2E700BF7835002044B1010054B1010012
:10A9F400CDCCCCCC0025FF2E1BD8F6B9002D0CDD18
:10AA04000DF11408013D454429782E463846FFF7D8
:10AA140026FD454505F1FF35F6D1254615F8011B00
:10AA240099B125293FF4B8AD3846FFF718FD2C46F7
:10AA3400F3E7310A3846FFF712FD06F07F01384686
:10AA4400FFF70DFDDAE70025F7E7BB682BB13A689D
:10AA540079688A423CBF00219954386809B0BDE83E
:0CAA6400F08F4FF0FF30F9E72B26ADE635
:0CAA7000C99C010045A2010055A4010092
:10AA7C005465726D696E616C000000005254540094
:10AA8C0053454747455200004572726F7220696EFC
:10AA9C002025733A25643A2025730A00536F667497
:10AAAC00446576696365206E6F7420656E61626CB7
:10AABC0065640000496E7465726E616C206572721B
:10AACC006F7200004F7574206F66206D656D6F722C
:10AADC00790000004E6F7420666F756E6400000084
:10AAEC004E6F7420737570706F7274656400000023
:10AAFC00496E76616C696420706172616D65746514
:10AB0C00720000004F7065726174696F6E206E6F19
:10AB1C007420616C6C6F77656420696E2074686951
:10AB2C007320737461746500496E76616C6964207E
:10AB3C00666C616773000000496E76616C69642015
:10AB4C00646174612073697A6500000054696D65F5
:10AB5C006F7574004E756C6C20706F696E746572D5
:10AB6C00206E6F7420616C6C6F7765640000000060
:10AB7C00466F7262696464656E206F706572617491
:10AB8C00696F6E00496E76616C69642061646472F1
:10AB9C006573730042757379000000004D6178692C
:10ABAC006D756D20636F6E6E656374696F6E206377
:10ABBC006F756E742065786365656465640000006C
:10ABCC004E6F7420656E6F756768207265736F7554
:10ABDC007263657320666F722074686973206F707E
:10ABEC0065726174696F6E005356432068616E64C0
:10ABFC006C6572206D697373696E6700556E6B6E50
:10AC0C006F776E206572726F7220256400000000F1
:10AC1C00486172646661756C7420617373657274DB
:10AC2C00696F6E2061742061646472657373203087
:10AC3C0078253038580A00004D656D6F72792061A7
:10AC4C0063636573732076696F6C6174696F6E20D2
:10AC5C0061742061646472657373203078253038B8
:10AC6C005820616363657373696E67203078253093
:10AC7C0038580A00556E6B6E6F776E20686172647F
:10AC8C006661756C74202849443D256429206174E3
:10AC9C002061646472657373203078253038580AEB
:10ACAC00000000002F55736572732F627269616E1C
:10ACBC002F7372632F626C652D66726F6D2D7363CB
:10ACCC0072617463682F70617274342F626C655F8B
:10ACDC006164762E636300004164766572746973F7
:10ACEC00696E6720636F6E66696775726564202E86
:10ACFC002E000000494E464F3A2025733A25643AFF
:10AD0C002025730A0000000036373233646636653E
:10AD1C002D383264352D343739622D383431362D97
:10AD2C0035346163323033643365366500000000BE
:10AD3C0057726F6E6720555549442073697A6500C8
:10AD4C002F55736572732F627269616E2F73726304
:10AD5C002F626C652D66726F6D2D736372617463F7
:10AD6C00682F70617274342F6164765F68656C70E3
:10AD7C0065722E680000000057726F6E6720555583
:10AD8C00494420666F726D617420666F722073681F
:10AD9C006F72742055554944000000002F5573659F
:10ADAC0072732F627269616E2F7372632F626C659E
:10ADBC002D66726F6D2D736372617463682F706191
:10ADCC007274342F626C655F68616E646C65722E90
:10ADDC0063630000496E697469616C2068616E641C
:10ADEC006C65206265666F726520696E7374616C48
:10ADFC006C2069732025640A00000000536F667490
:10AE0C00446576696365207265706F727465642041
:10AE1C00256420627974657320667265650A00008A
:10AE2C00496E697469616C2068616E646C6520613F
:10AE3C006674657220696E7374616C6C2069732022
:10AE4C0025640A005269736B206F6620737461630A
:10AE5C006B206F766572666C6F7700004469736364
:10AE6C006F6E6E65637465642C20416476657274D4
:10AE7C006973696E672072657374617274656400BE
:10AE8C0044657669636520636F6E6E656374656493
:10AE9C002C204164766572746973696E67207374D3
:10AEAC006F70706564000000506879207570646183
:10AEBC00746520726571756573746564202D2077D7
:10AECC00696C6C2072656A65637400005068792047
:10AEDC0073657420746F2074783D25642C2072780F
:10AEEC003D2564004D54552065786368616E676537
:10AEFC00207265717565737420726563656976651A
:10AF0C0064000000496E636F6D696E672072657135
:10AF1C0075657374207761732025640A0000000046
:10AF2C00576520726573706F6E6420776974682042
:10AF3C0025640A0048616420746F2072657472790C
:10AF4C00204D545520726573706F6E736500000050
:10AF5C004661696C656420746F20726573706F6EE6
:10AF6C006420746F20676174742065786368616E07
:10AF7C0067653A20000000004D545520736574201D
:10AF8C00746F202564000000446574656374656407
:10AF9C0020777269746520746F2068616E646C65CB
:10AFAC00202564202875756964203D20307825584B
:10AFBC0029200A004576656E742030782578207239
:10AFCC00656365697665642077697468206C656E65
:10AFDC006774682025640A0001010000003000201D
:10AFEC002F55736572732F627269616E2F73726362
:10AFFC002F626C652D66726F6D2D73637261746355
:10B00C00682F70617274342F6D61696E2E636300EA
:10B01C00536F6674446576696365207374617274EA
:10B02C006564000041676772656761746520746FC1
:10B03C006F206C6F6E6700004E616D6520746F6FD2
:10B04C00206C6F6E670000004246530053657474A9
:10B05C00696E672075702064657669636520696E1A
:10B06C00666F20736572766963650A002F55736588
:10B07C0072732F627269616E2F7372632F626C65CB
:10B08C002D66726F6D2D736372617463682F7061BE
:10B09C007274342F446576696365496E666F2E63EE
:10B0AC00630000005365727669636520676F7420D6
:10B0BC0068616E646C652025640A000043686172E7
:10B0CC006163746572697374696320676F74206857
:10B0DC00616E646C652025640A000000416C706828
:10B0EC0061302E3100000000424653203100000038
:10B0FC0044616D20436F6E6E656374697669747913
:10B10C00000000000A180100292A0100262A01006B
:10B11C00242A0100282A010011000400020000006A
:10B12C000000000000000000000000000000000013
:10B13C000000000000000000303132333435363767
:10B14C003839616263646566303132333435363791
:08B15C003839414243444546E5
:10B164000090D003FF00000054B0010014B10100AE
:10B1740024B10100000000000000000000000000F5
:10B1840018B1010024B1010000000000000000001B
:10B19400000000001CB1010024B101000000000007
:10B1A400000000000000000020B1010024B10100F3
:10B1B400000000000000000000000000E8B00100F2
:08B1C400FCB00100F4B0010031
:0400000310009685CE
:00000001FF
