:020000021000EC
:109000000000012031950100619501006395010088
:109010006595010067950100699501000000000059
:109020000000000000000000000000006B9501003F
:109030006D950100000000006F9501007195010021
:109040007595010077950100799501007B950100E8
:109050007D9501007F9501008195010083950100B8
:109060008595010087950100899501008B95010088
:109070008D9501008F950100919501009395010058
:109080009595010097950100999501009B95010028
:109090009D9501009F950100A1950100A3950100F8
:1090A000A5950100A7950100A9950100AB950100C8
:1090B000AD950100AF950100739501007395010016
:1090C000B1950100B3950100B5950100B795010078
:0C90D000B9950100BB950100BD950100A1
:1090DC00AA4B1B78062B30B40FD0A94AD2F8883093
:1090EC0043F47003C2F88830BFF34F8FBFF36F8F18
:1090FC00A44BA54A1A6030BC7047A44B1B681D07D3
:10910C00EBD1A34B1B6803F0F002302A00F08F80E8
:10911C0003F0E003402B00F08A809D4B1B6803F0AA
:10912C00F003302B00F09480994B1B6803F0F00295
:10913C00302A6BD003F0E003402B67D0944B1B68B4
:10914C0003F0F003302B00F00881914B1B6803F007
:10915C00F002302A46D003F0E003402B42D08C4B77
:10916C001B6803F0F003302B00F0E980884B1B6880
:10917C0003F0F003302B00F0CB80854B1B6803F021
:10918C00F003502B72D0824B1B6803F0F002302A94
:10919C0018D003F0E003402B14D07D4B1B6803F078
:1091AC00F002302A03D003F0E003402B95D14FF0AE
:1091BC008043D3F80024D20744BF6FF00102C3F8F8
:1091CC0000248AE7734B6D4A1B681278724903F0CE
:1091DC004F03062A0B6080D16C4B1B6819077FF478
:1091EC007CAFDAE7654A11784FF0804300220629FC
:1091FC00C3F80C21C3F81021C3F838257FF46DAFE8
:10920C00624B1B681B077FF468AFA8E7634B5B4A94
:10921C001B6812786249C3F34233062A0B607FF451
:10922C005CAF5A4B1B6819077FF457AF86E75D4B51
:10923C00524A1B6812785C49C3F30423062A0B605C
:10924C007FF44BAF514B1B681C077FF446AF64E7B0
:10925C004A4B564A1B7856491160062B7FF43DAF9A
:10926C004A4B1B6818077FF438AF5DE74FF080520C
:10927C00504BD2F80414C3F82015D2F80814C3F8D4
:10928C002415D2F80C14C3F82815D2F81014C3F80E
:10929C002C15D2F81414C3F83015D2F81814C3F8DE
:1092AC003415D2F81C14C3F84015D2F82014C3F8A6
:1092BC004415D2F82414C3F84815D2F82814C3F86E
:1092CC004C15D2F82C14C3F85015D2F83014C3F83E
:1092DC005415D2F83414C3F86015D2F83814C3F806
:1092EC006415D2F83C14C3F86815D2F8401423481E
:1092FC00C3F86C15D2F844140278C3F87015062A1A
:10930C007FF4EBAE214B1B6818077FF4E6AE3AE70F
:10931C001A4B294C1B78294929482A4A05252560CE
:10932C0001250D6000243F21062B046011607FF4A1
:10933C00D4AE164B1B681C077FF4CFAE1DE70F4B4A
:10934C00214A1B780321062B11607FF4C6AE0F4B0C
:10935C001B681D077FF4C1AE08E71C4A0749D36898
:10936C00097823F080730629D3607FF4B6AE074BDF
:10937C001B681A077FF4B1AEE7E600BFE00F00F000
:10938C0000ED00E0003000200090D003E40F00F06E
:10939C00E80F00F058020010E40E004044020010E8
:1093AC003C050040240300104035014074C00740C8
:1093BC000DF0ADBA00C00040105600408856004079
:1093CC001856004014560040A0050040F0ED00E097
:1093DC00344935480A1A02D0072291438D46334945
:1093EC0033480A1A06D00722914381F309880222D6
:1093FC0082F314882F483049304A00F042F8304844
:10940C003049314A00F03DF830483149314A00F0DA
:10941C0038F831483149324A00F033F83148324992
:10942C00324A00F02EF832483249334A00F029F81B
:10943C0032483349334A00F024F833483349002288
:10944C0000F02AF832483349002200F025F832485F
:10945C003249091A082902DB0022026041601F48C8
:10946C001F49884205D00268043003B4904703BCFE
:10947C00F7E700208646EC4600200021284A90475A
:10948C00FEE7884207D0521A05D0037801300B70E2
:10949C000131013AF9D17047884202D00270013093
:1094AC00FAE770470000012000F8002000000120BE
:1094BC000000012008AA0100003000203C300020F0
:1094CC00C0950100C09501002CA8010008AA01005C
:1094DC0000300020003000202CA801002CA8010036
:1094EC0038A801002CA801002CA801002CA8010010
:1094FC0038A8010038A8010008AA010044AA0100FC
:10950C0050350020503500203C30002050350020D4
:10951C0050350020503500205035002050360020AA
:10952C00959E010008484FF007018843854607487F
:10953C0080470748016841F470010160BFF34F8F09
:10954C00BFF36F8FFFF744BF00000120DD900100D7
:10955C0088ED00E0FEE7FEE7FEE7FEE7FEE7FEE74C
:10956C00FEE7FEE7FEE7FEE7FEE7FEE7FEE7FEE7C7
:10957C00FEE7FEE7FEE7FEE7FEE7FEE7FEE7FEE7B7
:10958C00FEE7FEE7FEE7FEE7FEE7FEE7FEE7FEE7A7
:10959C00FEE7FEE7FEE7FEE7FEE7FEE7FEE7FEE797
:1095AC00FEE7FEE7FEE7FEE7FEE7FEE7FEE7FEE787
:0495BC00FEE700BF07
:1095C0002DE9F04F7E4F3B7883B080468B46914625
:1095D000CBB1EFF3118A4FF0200181F3118808EB32
:1095E000480507EBC5054FEA4804EE6A012E00F076
:1095F0008A80022E4BD036B300268AF3118830467B
:1096000003B0BDE8F08F6F4ABB6202217B62FB6250
:10961000BB657B65FB656C4BBA61C7E90411BA6435
:109620004FF48061694AFB6110233B653962FA643B
:109630006749F81D00F02AFE6649384600F026FE0C
:109640002023BB71C5E7AA6A6B6A9A429CBF296A4C
:109650005218013AD21A9145CFD8444407EBC404BA
:1096600008F10108256AEE1A08EB4808B14507EB36
:10967000C80780F0918078680093184459464A469C
:1096800000F0DBFD009B4B4463624E46B5E708F1FA
:10969000010808EB48084FEAC8036C6A00930026EB
:1096A000AB6AA34203F1FF3222D9296A121B009B45
:1096B0004A453B44A1EB040828BF4A4690455868F8
:1096C00028BF904620445946424600F0B6FD2B6A1A
:1096D00044449C424644A9EB0809C3440DD06C6243
:1096E000B9F1000F89D0AB6AA34203F1FF32DCD895
:1096F000296A5A18013A121BD9E700246C62B9F1A1
:10970000000FCDD179E7AE6A6B6A9E421CD9013E4B
:10971000F61A2D6A4E4528BF4E46EA1A96421DD2C9
:1097200008F1010202EB420207EBC20259465068FF
:1097300000931844324600F080FDA044009B07EBE4
:10974000C80733447B6258E72D6A2E44013EF61A5F
:109750004E4528BF4E46EA1A9642E1D308F1010968
:1097600009EB490907EBC9095946D9F804000192E8
:109770001844009300F061FD009B019AD9F80400A1
:10978000751BA0441D4407EBC8070BEB02012A46DA
:1097900000F053FD7D6230E7786800933246594609
:1097A000184400F04AFD009B78684B445D1B0BEBAE
:1097B00006012A4600F041FD4E4665621DE700BFE6
:1097C0003C30002038A80100C4300020B430002014
:1097D00044A8010048A801000FB410B5A2B024AB02
:1097E00002A853F8042B0193802100F018FD02A970
:1097F000044602460020FFF7E3FE204622B0BDE803
:10980000104004B0704700BF01280BD010B441F2E3
:109810000104A04209D00A465DF8044B0146054800
:10982000FFF7DABF0448FFF7D7BF04485DF8044BE1
:10983000FFF7D2BFB4A8010050A8010078A801002A
:1098400072DF704773DF704738B5154B1549D87F05
:10985000154C164AE57F0C60002808BF0023202421
:1098600088818B6094600023012411481360536148
:10987000C2E903338D80536014705475FFF7E0FF25
:1098800000B938BDBFF34F8F0A490B4BCA6802F4C9
:10989000E0621343CB60BFF34F8F00BFFDE700BF13
:1098A0002C350020C43400200C350020D434002096
:1098B0000430002000ED00E00400FA05024B012115
:1098C0001878FFF7BFBF00BF0430002070B400233A
:1098D000C3770E7856B10B46C1F10105EC1813F8A9
:1098E000012F002AFAD1062C00F0648191F8233070
:1098F000313BDBB2352B4FF01002C2779CBFA74A39
:10990000D25691F82230A3F13103DBB288BF002296
:10991000352B40F24A8191F821300270313BDBB2A5
:10992000352B9CBF9D4AD25691F82030A3F13103CC
:10993000DBB288BF0022352B40F23281CB7F4270F0
:10994000313BDBB2352B9CBF944AD2568B7FA3F1BF
:109950003103DBB288BF0022352B40F219814B7FE7
:109960008270313BDBB2352B9CBF8C4AD2560B7FC9
:10997000A3F13103DBB288BF0022352B40F2038113
:10998000CB7EC270313BDBB2352B9CBF834AD256B3
:109990008B7EA3F13103DBB288BF0022352B40F26E
:1099A000ED804B7E0271313BDBB2352B9CBF7B4A95
:1099B000D2560B7EA3F13103DBB288BF0022352BD8
:1099C00040F2D7808B7D4271313BDBB2352B9CBF9F
:1099D000724AD2564B7DA3F13103DBB288BF00221D
:1099E000352B40F2C1800B7D8271313BDBB2352BD0
:1099F0009CBF6A4AD256CB7CA3F13103DBB288BF4D
:109A00000022352B40F2AB804B7CC271313BDBB284
:109A1000352B9CBF614AD2560B7CA3F13103DBB2DC
:109A200088BF0022352B40F29580CB7B0272313B00
:109A3000DBB2352B9CBF594AD2568B7BA3F1310345
:109A4000DBB288BF0022352B7FD90B7B4272313BC2
:109A5000DBB2352B9CBF514AD256CB7AA3F13103EE
:109A6000DBB288BF0022352B6AD98B7A8272313BF8
:109A7000DBB2352B9CBF494AD2564B7AA3F1310356
:109A8000DBB288BF0022352B55D9CB79C272313B6E
:109A9000DBB2352B9CBF414AD2568B79A3F13103FF
:109AA000DBB288BF0022352B40D94B790273313BA2
:109AB000DBB2352B9CBF394AD2560B79A3F1310367
:109AC000DBB288BF0022352B2BD9CB784273313BD8
:109AD000DBB2352B9CBF314AD2568B78A3F13103D0
:109AE000DBB288BF0022352B16D94B788273313B0D
:109AF000DBB2352B98BF294AA6F13106F6B294BFE6
:109B0000D3560023352E02D970BCC3737047234A45
:109B1000925703EB0213F7E7204CE35602EB0312D4
:109B2000E3E71E4CE35602EB0312CEE71B4CE35671
:109B300002EB0312B9E7194CE35602EB0312A4E758
:109B4000164CE35602EB03128FE7144CE35602EB7C
:109B500003127AE7114CE35602EB031265E70F4C50
:109B6000E35602EB03124FE70C4CE35602EB0312F1
:109B700039E70A4CE35602EB031223E7074CE3569E
:109B800002EB03120DE7054CE35602EB0312F7E676
:109B9000024CE35602EB0312E1E600BF0CA9010000
:109BA0001A4CE35602EB0312C8E6184CE35602EBDC
:109BB0000312B0E64B79313BDBB2352B9CBF134A25
:109BC000D2560B79313BDBB20224352BC47718D93E
:109BD000CB780270313BDBB2352B9CBF0B4AD2569F
:109BE0008B78A3F13103DBB288BF0022352B02D979
:109BF000427070BC70470549CB5602EB03124270AD
:109C0000F7E7024CE35602EB0312E1E70CA901006F
:109C100008B502490248FFF759FE08BDE4A8010053
:109C2000EC3400208FDF7047BFF34F8F0549064BA0
:109C3000CA6802F4E0621343CB60BFF34F8F00BFEA
:109C4000FDE700BF00ED00E00400FA05B5DF704756
:109C500060DF704769DF704761DF704730B5A3B0E0
:109C600000232D4C0593CDE90233012208930B9379
:109C7000CDE90633CDE9093304930D936423042120
:109C800020688DF808208DF80A208DF81420ADF892
:109C9000163040F201120223ADF80C10ADF820206E
:109CA0008DF82D300C9000F013FB03462068ADF8C2
:109CB000343000F00DFB194BADF836001C6802A9DA
:109CC00022462020FFF7C6FF20BB05A922462220FE
:109CD000FFF7C0FFF0B908A922464020FFF7BAFFFE
:109CE000C0B90BA922464120FFF7B4FF90B901A8E3
:109CF0000194FFF7ADFF019A09490546A21A0EA883
:109D000000F078FA35B9C820FFF79EFDFFF7D6FDC1
:109D100023B030BDFFF788FF08300020B4A9010050
:109D200044A901002DE9F0434C4E4D4D4D4C97B0E8
:109D300000AF391D0020FFF78FFF052859D0BA88E2
:109D400012F0030318BF012303EB92039B009BB2A5
:109D50009A1007326946D208A1EBC2029546E8463E
:109D60004046B91DFB80FFF777FF002873D1B8F894
:109D70000020222A58D80F2A4FD9A2F11003122B03
:109D80004BD801A151F823F0339D01000F9E010033
:109D90001B9E01001B9E01001B9E01001B9E0100DB
:109DA0001B9E01001B9E01001B9E01001B9E0100CB
:109DB0001B9E01001B9E01001B9E01001B9E0100BB
:109DC0001B9E01001B9E01001B9E0100FB9D0100CC
:109DD000D59D010098F80A3098F80920214607F12E
:109DE000080000F007FA391D0020FFF735FF0528AD
:109DF000A5D15C37BD46BDE8F08340F20113B8F849
:109E000004003B8107F10801FFF70CFF91E72020D8
:109E1000FFF71AFDFFF752FD8BE7BB88314607F1CC
:109E2000080000F0E7F984E7552AF6D1B8F8069063
:109E3000B9F1640F28BF4FF06409B8F8040049462F
:109E4000FFF704FF1128F8D04A46294607F1080019
:109E500000F0D0F96DE7FFF7E7FE00BF90A9010021
:109E600080A9010068A90100BFF34F8F0549064B87
:109E7000CA6802F4E0621343CB60BFF34F8F00BFA8
:109E8000FDE700BF00ED00E00400FA0541DF704788
:109E900010DF704700B583B0084B0949019301A852
:109EA000FFF7F6FF40B9FFF7D9FE01E0FFF73AFFF1
:109EB000FFF7ECFF0028F9D0FFF7D6FF01000007FD
:109EC0000998010070B49A4B1B689BB01A784FF444
:109ED00081700621ADF804008DF80610002A00F00C
:109EE00011811946002611F8012F35460136002A46
:109EF000F9D1F1B2881C09240131022DC0B28DF8CC
:109F000024108DF8254025DD1A68CDF82620B208EA
:109F1000012A1BD05968CDF82A10022A16D0996858
:109F2000CDF82E10032A11D0D968CDF83210042AAA
:109F30000CD01969CDF83610052A07D05969CDF82B
:109F40003A10062A02D09A69CDF83E20B10726F0D1
:109F5000030212D01AA911449C5C01F8424C9542AC
:109F600002F1010409DD1E5D01F8416CA54202F118
:109F7000020202DD9B5C01F8403C0246002800F032
:109F8000CC800128044638BF0124032840F3CC804C
:109F9000099BCDF80730A308012B1BD00A99CDF8F7
:109FA0000B10022B16D00B99CDF80F10032B11D0EC
:109FB0000C99CDF81310042B0CD00D99CDF8171077
:109FC000052B07D00E99CDF81B10062B02D00F9B46
:109FD000CDF81F3024F00301CB1C8C42DBB21ED025
:109FE0001AAC0C4414F8445C1AAC1C4404F8645CCD
:109FF0004D1C5C1CA842E4B211DD1AAE3544344459
:10A00000023115F8445C04F8645C02338842DBB228
:10A0100005DD3144334411F8441C03F8641C002A64
:10A0200002F10302D8BF0422D2B2424CE37F0621E0
:10A03000581C8DF844008DF84510002B6FD0591E28
:10A0400002296ED92168CDF84610990801291BD044
:10A050006068CDF84A00022916D0A068CDF84E00FD
:10A06000032911D0E068CDF8520004290CD02069F2
:10A07000CDF85600052907D06069CDF85A000629A9
:10A0800002D0A169CDF85E1023F00300811C834249
:10A09000C9B218D01AAD0D44265C05F8246C461CD4
:10A0A0004D1CB342EDB20EDD0DF1680C654402307B
:10A0B000A65D05F8246C02319842C9B203DA614406
:10A0C000205C01F8240C0233DBB21344DBB211A98B
:10A0D0001AA810440132D2B211F8014B00F8644CB6
:10A0E0009342F5D18DF8233001AD0FCD124C134EB4
:10A0F0000FC495E80F0084E80F000023F3771BB02E
:10A1000070BC704740F601131A0A8DF80820ADF8AC
:10A1100024308DF80730022281E7032285E70223ED
:10A12000D3E702210020B5E70323002158E700BF51
:10A1300008300020EC3400200C3500202C350020A5
:10A1400030B41B4B1A6813783BB11146C2F10104BD
:10A15000631811F8010F0028FAD116490B81137802
:10A160003BB11046C2F10104231810F8015F002D25
:10A17000FAD111488B8103680A611A783AB11946FD
:10A18000C3F10104621811F8010F0028FAD10B493C
:10A190000A811A783AB11846C3F10104221810F85E
:10A1A000015F002DFAD130BC8A810B61704700BF7E
:10A1B000383000200C3000203430002020300020C7
:10A1C00038B504460846A26842B1236861685D1C40
:10A1D0008D4208BF00208B4208D2D054E3682BB1D7
:10A1E00021686268914201D2214698472368013371
:10A1F000236038BD0EB400B586B007AA52F8041B20
:10A2000005920390002304936FF00043029301A88A
:10A2100000F08EF806B05DF804EB03B0704710B59F
:10A2200084B00C46114602900022039201941A4613
:10A23000684600F07DF804B010BD844640EA010392
:10A2400013F0030F18D18446202A0BD32DE9F00711
:10A25000B1E8F807A0E8F807A2F12002202AF7D217
:10A26000BDE8F007042A07D351F8043B40F8043B4B
:10A27000A2F10402042AF7D2002A05D011F8013B0A
:10A2800000F8013B013AF9D160467047024610F0F0
:10A29000030F16D111F0030F13D12DE9F0004FF089
:10A2A00001374FF0803351F8044BA4EB070525EA42
:10A2B00004051D4002D142F8044BF4E7A1F104016A
:10A2C000F0BC11F8013B02F8013B002BF9D17047BB
:10A2D00000F1010110F0030F11D010F8012B002A3A
:10A2E00023D010F0030F0AD010F8012B002A1CD045
:10A2F00010F0030F03D010F8012B002A15D02DE920
:10A3000070004FF001324FF0803350F8044BA4EB53
:10A31000020525EA04051D4000D1F6E7A0F104007E
:10A3200070BC10F8012B002AFBD1A0EB0100704794
:10A330002DE9F04F89B007460392002303600D46D4
:10A3400015F8011B002900F06082DFF85CB4DFF82B
:10A350005CA4DFF85C9444E2002207E05E2834D17C
:10A3600042F4805201E042F0400225462C4614F8A7
:10A37000010B2B28F2D81F282DD9A0F120030B2B7D
:10A3800023D801A151F823F067A30100CBA301005A
:10A39000CBA30100B9A30100CBA30100CBA3010013
:10A3A000CBA30100BFA30100CBA30100CBA30100FD
:10A3B000CBA30100C5A3010042F08002D5E742F41F
:10A3C0000042D2E742F02002CFE7742801D07A2879
:10A3D00063D12078AC1C002800F02382A0F1250373
:10A3E000DBB2532B67D8A0F12503532B63D8DFE8EA
:10A3F00013F06F006200620062006200620062009F
:10A40000620062006200620062006200620062003C
:10A41000620062006200620062006200620062002C
:10A42000620062006200620062006200620062001C
:10A43000620062006200620062006200620062000C
:10A4400062006200620062006200620062006200FC
:10A450006200620062006200B0006200620062009E
:10A4600062006200620062006200620062007400CA
:10A470001B0162006200620062001B016200620058
:10A48000620062007C0015019D00620062008D0088
:10A4900062001F0162006200B20068289BD1207830
:10A4A000682803D0AC1C42F0040294E742F0080292
:10A4B000607802348FE7BB4B1D68002D00F08D8162
:10A4C00003AB01934FF0FF3300933946A84784E173
:10A4D00025213846FFF774FE7FE1039B1A1D039286
:10A4E00019783846FFF76CFE77E112F0080F06D0B6
:10A4F0003A68039B191D03911B681A706DE1039B59
:10A500001A1D03921B683A681A6066E1039B1A1DC4
:10A5100003921D682978002900F05F813846FFF713
:10A520004FFE15F8011F0029F8D156E1039B191DB4
:10A5300003911B6812F0800F0CBF0026232642F403
:10A540008072002B40F0DB8030238DF81430012521
:10A5500031E142F4005212F0800F6BD043F27806E2
:10A5600043F25803782818BF1E4612F4804F70D06B
:10A57000039B191D03911B6812F0040F5CD01BB2E2
:10A58000002B5DDA5B422D265838202800F23B81F3
:10A5900001A151F820F000BF43A5010007A8010068
:10A5A00007A8010007A8010007A8010007A80100EB
:10A5B00007A8010007A8010007A8010007A80100DB
:10A5C00007A8010007A8010051A7010007A8010082
:10A5D00007A8010007A8010007A8010051A7010072
:10A5E00007A8010007A8010007A8010007A80100AB
:10A5F00007A8010029A7010043A5010007A8010041
:10A6000007A8010007A8010007A8010051A7010041
:10A6100007A8010007A8010043A5010012F0800F60
:10A620000CBF00263026A0E742F4804200269CE7BB
:10A6300000269AE7002698E712F0080FA0D0DBB2B8
:10A6400012F0200F40F0F08012F0400F09D02026C9
:10A650009AE7039B191D03911B6812F0040F49D060
:10A660009BB25838202800F2A58001A151F820F0B3
:10A6700043A50100B5A70100B5A70100B5A70100DA
:10A68000B5A70100B5A70100B5A70100B5A7010056
:10A69000B5A70100B5A70100B5A70100B5A7010046
:10A6A00051A70100B5A70100B5A70100B5A701009A
:10A6B000B5A7010051A70100B5A70100B5A701008A
:10A6C000B5A70100B5A70100B5A7010029A70100A2
:10A6D00043A50100B5A70100B5A70100B5A701007A
:10A6E000B5A7010051A70100B5A70100B5A701005A
:10A6F00043A5010012F0080F18BFDBB2B1E705A9AE
:10A70000002502F4005208E003F00F001BF80000DF
:10A7100001F8010B01351B094DD0002AF4D003F0DC
:10A720000F001AF80000F3E723B930238DF8143036
:10A73000012540E01A4605A9002503F00703303340
:10A7400001F8013B0135D2081346002AF5D132E069
:10A7500023B930238DF8143001252CE0002502F4B4
:10A7600000424FF02C0E10E008A901EB050CA9FBEC
:10A770000310C00800EB8001A3EB410130310CF85D
:10A780000C1C0135092B16D90346002AECD005F024
:10A7900003010329E8D108A9294401F80CEC01358B
:10A7A000E2E700BF4C350020E8A90100F8A901004C
:10A7B000CDCCCCCC0025FF2E1BD8F6B9002D0CDD5E
:10A7C0000DF11408013D454429782E463846FFF71F
:10A7D000F7FC454505F1FF35F6D1254615F8011B77
:10A7E00099B125293FF4B8AD3846FFF7E9FC2C466E
:10A7F000F3E7310A3846FFF7E3FC06F07F013846FD
:10A80000FFF7DEFCDAE70025F7E7BB682BB13A6813
:10A8100079688A423CBF00219954386809B0BDE884
:0CA82000F08F4FF0FF30F9E72B26ADE67B
:0CA82C00119C0100C59E010041A101002B
:10A838005465726D696E616C0000000052545400DA
:10A848005345474745520000486172646661756C1C
:10A858007420617373657274696F6E20617420610E
:10A86800646472657373203078253038580A0000A4
:10A878004D656D6F727920616363657373207669C6
:10A888006F6C6174696F6E206174206164647265B5
:10A89800737320307825303858206163636573738B
:10A8A800696E67203078253038580A00556E6B6E0F
:10A8B8006F776E20686172646661756C74202849D0
:10A8C800443D256429206174206164647265737352
:10A8D800203078253038580A0000000036373233E7
:10A8E800646636652D383264352D343739622D3833
:10A8F8003431362D3534616332303364336536652F
:10A908000000000001020304050607080900000012
:10A91800000000000A0B0C0D0E0F000000000000E4
:10A92800000000000000000000000000000000001F
:10A93800000000000A0B0C0D0E0F0000536F667428
:10A94800446576696365207265706F72746564200A
:10A95800256420627974657320667265650A000053
:10A968005068792073657420746F2074783D25646D
:10A978002C2072783D2564004D5455207365742051
:10A98800746F2025640000004576656E7420307869
:10A9980025782072656365697665642077697468CF
:10A9A800206C656E6774682025640A0000300020FA
:10A9B80042465300416C706861302E31000000003F
:10A9C80044616D20436F6E6E65637469766974794E
:10A9D80000000000292A0100262A010011000400B5
:10A9E80030313233343536373839616263646566FD
:10A9F80030313233343536373839414243444546AD
:10AA08000090D003FF000000B8A90100DCA90100F4
:10AA1800E4A90100000000000000000000000000A0
:10AA2800E0A90100E4A90100000000000000000006
:0CAA380000000000BCA90100C8A901003A
:040000031000953123
:00000001FF
