:020000021000EC
:109000000000012031950100619501006395010088
:109010006595010067950100699501000000000059
:109020000000000000000000000000006B9501003F
:109030006D950100000000006F9501007195010021
:109040007595010077950100799501007B950100E8
:109050007D9501007F9501008195010083950100B8
:109060008595010087950100899501008B95010088
:109070008D9501008F950100919501009395010058
:109080009595010097950100999501009B95010028
:109090009D9501009F950100A1950100A3950100F8
:1090A000A5950100A7950100A9950100AB950100C8
:1090B000AD950100AF950100739501007395010016
:1090C000B1950100B3950100B5950100B795010078
:0C90D000B9950100BB950100BD950100A1
:1090DC00AA4B1B78062B30B40FD0A94AD2F8883093
:1090EC0043F47003C2F88830BFF34F8FBFF36F8F18
:1090FC00A44BA54A1A6030BC7047A44B1B681D07D3
:10910C00EBD1A34B1B6803F0F002302A00F08F80E8
:10911C0003F0E003402B00F08A809D4B1B6803F0AA
:10912C00F003302B00F09480994B1B6803F0F00295
:10913C00302A6BD003F0E003402B67D0944B1B68B4
:10914C0003F0F003302B00F00881914B1B6803F007
:10915C00F002302A46D003F0E003402B42D08C4B77
:10916C001B6803F0F003302B00F0E980884B1B6880
:10917C0003F0F003302B00F0CB80854B1B6803F021
:10918C00F003502B72D0824B1B6803F0F002302A94
:10919C0018D003F0E003402B14D07D4B1B6803F078
:1091AC00F002302A03D003F0E003402B95D14FF0AE
:1091BC008043D3F80024D20744BF6FF00102C3F8F8
:1091CC0000248AE7734B6D4A1B681278724903F0CE
:1091DC004F03062A0B6080D16C4B1B6819077FF478
:1091EC007CAFDAE7654A11784FF0804300220629FC
:1091FC00C3F80C21C3F81021C3F838257FF46DAFE8
:10920C00624B1B681B077FF468AFA8E7634B5B4A94
:10921C001B6812786249C3F34233062A0B607FF451
:10922C005CAF5A4B1B6819077FF457AF86E75D4B51
:10923C00524A1B6812785C49C3F30423062A0B605C
:10924C007FF44BAF514B1B681C077FF446AF64E7B0
:10925C004A4B564A1B7856491160062B7FF43DAF9A
:10926C004A4B1B6818077FF438AF5DE74FF080520C
:10927C00504BD2F80414C3F82015D2F80814C3F8D4
:10928C002415D2F80C14C3F82815D2F81014C3F80E
:10929C002C15D2F81414C3F83015D2F81814C3F8DE
:1092AC003415D2F81C14C3F84015D2F82014C3F8A6
:1092BC004415D2F82414C3F84815D2F82814C3F86E
:1092CC004C15D2F82C14C3F85015D2F83014C3F83E
:1092DC005415D2F83414C3F86015D2F83814C3F806
:1092EC006415D2F83C14C3F86815D2F8401423481E
:1092FC00C3F86C15D2F844140278C3F87015062A1A
:10930C007FF4EBAE214B1B6818077FF4E6AE3AE70F
:10931C001A4B294C1B78294929482A4A05252560CE
:10932C0001250D6000243F21062B046011607FF4A1
:10933C00D4AE164B1B681C077FF4CFAE1DE70F4B4A
:10934C00214A1B780321062B11607FF4C6AE0F4B0C
:10935C001B681D077FF4C1AE08E71C4A0749D36898
:10936C00097823F080730629D3607FF4B6AE074BDF
:10937C001B681A077FF4B1AEE7E600BFE00F00F000
:10938C0000ED00E0003000200090D003E40F00F06E
:10939C00E80F00F058020010E40E004044020010E8
:1093AC003C050040240300104035014074C00740C8
:1093BC000DF0ADBA00C00040105600408856004079
:1093CC001856004014560040A0050040F0ED00E097
:1093DC00344935480A1A02D0072291438D46334945
:1093EC0033480A1A06D00722914381F309880222D6
:1093FC0082F314882F483049304A00F042F8304844
:10940C003049314A00F03DF830483149314A00F0DA
:10941C0038F831483149324A00F033F83148324992
:10942C00324A00F02EF832483249334A00F029F81B
:10943C0032483349334A00F024F833483349002288
:10944C0000F02AF832483349002200F025F832485F
:10945C003249091A082902DB0022026041601F48C8
:10946C001F49884205D00268043003B4904703BCFE
:10947C00F7E700208646EC4600200021284A90475A
:10948C00FEE7884207D0521A05D0037801300B70E2
:10949C000131013AF9D17047884202D00270013093
:1094AC00FAE770470000012000F8002000000120BE
:1094BC000000012020A90100003000200C30002009
:1094CC00C0950100C095010074A7010020A90100FE
:1094DC00003000200030002074A7010074A70100A8
:1094EC007CA7010074A7010074A7010074A70100F8
:1094FC007CA701007CA7010020A901002CA9010078
:10950C0020350020203500200C3000202035002094
:10951C00203500202035002020350020203600206A
:10952C00219E010008484FF00701884385460748F3
:10953C0080470748016841F470010160BFF34F8F09
:10954C00BFF36F8FFFF744BF00000120DD900100D7
:10955C0088ED00E0FEE7FEE7FEE7FEE7FEE7FEE74C
:10956C00FEE7FEE7FEE7FEE7FEE7FEE7FEE7FEE7C7
:10957C00FEE7FEE7FEE7FEE7FEE7FEE7FEE7FEE7B7
:10958C00FEE7FEE7FEE7FEE7FEE7FEE7FEE7FEE7A7
:10959C00FEE7FEE7FEE7FEE7FEE7FEE7FEE7FEE797
:1095AC00FEE7FEE7FEE7FEE7FEE7FEE7FEE7FEE787
:0495BC00FEE700BF07
:1095C0002DE9F04F744D2B7883B006468846174638
:1095D000002B55D0EFF3118B4FF0200181F3118850
:1095E0004FEA460909EB060305EBC303DC6A012CCD
:1095F00000F08980002C63D0022C3FD1013606EBAD
:109600004606F2005E6A00929A460024DAF8283094
:10961000DAF820200099B34203F1FF3996BF9B1876
:10962000A9EB060303F1FF33A2EB060998BF9B1BCE
:109630006918B94528BFB9469945486828BF994671
:10964000304441464A4600F0A2FDDAF820304E444C
:109650009E424C44A7EB0907C84409D0CAF82460CD
:10966000002FD3D18BF31188204603B0BDE8F08FD3
:109670000026CAF82460002FC8D1F3E70024F1E7E0
:10968000464AAB6202216B62EB62AB656B65EB65D0
:10969000434BAA61C5E90411AA644FF48061414AB1
:1096A000EB6110232B652962EA643F49E81D00F055
:1096B00097FD3E49284600F093FD2023AB7189E7D2
:1096C0009A6A596A8A429CBF1B6AD218013A521A96
:1096D0009742C7D8B14405EBC909013606EB4606E7
:1096E00005EBC605D9F8203068685C1AA742084423
:1096F00007EB010641D241463A4600F048FD3C46A0
:10970000C9F82460AEE79C6AD3E9083A544598BF8B
:10971000E4181A460093731C013C03EB4303A4EBCB
:109720000A0405EBC303BC4228BF3C465868A2EBC1
:109730000A07BC4250440AD24E444146224605EB39
:10974000C60500F024FD0AEB04036B628AE73A4683
:109750004146019300F01BFD009B4E44AAEB030A17
:10976000019BA24405EBC60508EB07015868524669
:1097700000F00DFDC5F824A074E7F61A2246414614
:1097800000F005FD08EB04016868324600F0FFFCBC
:109790003C46C9F8246065E70C3000207CA7010036
:1097A000943000208430002088A701008CA701009D
:1097B0000FB410B5A2B024AB02A853F8042B019348
:1097C000802100F0D6FC02A9044602460020FFF7E3
:1097D000F7FE204622B0BDE8104004B0704700BF3D
:1097E00001280ED041F20103984202D10648FFF74A
:1097F000DFBF10B40A465DF8044B01460348FFF78B
:10980000D7BF0348FFF7D4BFBCA70100F8A70100EA
:1098100094A7010072DF704773DF704770B5164977
:10982000164CC87F164B174AE67F9081002808BF68
:1098300000212025916014601146002496809D60CF
:1098400011481C6001251A465C615C60C3E9034451
:109850001D705D75FFF7DEFF00B970BDBFF34F8F60
:109860000A490B4BCA6802F4E0621343CB60BFF3B2
:109870004F8F00BFFDE700BFFC340020DC34002028
:10988000A4340020943400200430002000ED00E0D7
:109890000400FA05024B01211878FFF7BDBF00BF95
:1098A0000430002030B40023C3770B7853B10B464B
:1098B000C1F10105EC1813F8012F002AFAD1062C8A
:1098C00000F065811023C37791F82330313BDBB280
:1098D000352B9CBFA54AD25691F82230A3F1310313
:1098E000DBB288BF0022352B40F24C81027091F828
:1098F0002130313BDBB2352B9CBF9C4AD25691F8CC
:109900002030A3F13103DBB288BF0022352B40F2B7
:1099100034814270CB7F313BDBB2352B9CBF934A05
:10992000D2568B7FA3F13103DBB288BF0022352BE7
:1099300040F21E8182704B7F313BDBB2352B9CBFE6
:109940008A4AD2560B7FA3F13103DBB288BF0022D3
:10995000352B40F20581C270CB7E313BDBB2352B1B
:109960009CBF824AD2568B7EA3F13103DBB288BF03
:109970000022352B40F2EF8002714B7E313BDBB28F
:10998000352B9CBF794AD2560B7EA3F13103DBB253
:1099900088BF0022352B40F2D98042718B7D313B4C
:1099A000DBB2352B9CBF714AD2564B7DA3F13103FC
:1099B000DBB288BF0022352B40F2C38082710B7D61
:1099C000313BDBB2352B9CBF684AD256CB7CA3F12E
:1099D0003103DBB288BF0022352B40F2AD80C2716B
:1099E0004B7C313BDBB2352B9CBF604AD2560B7CA3
:1099F000A3F13103DBB288BF0022352B40F2978000
:109A00000272CB7B313BDBB2352B9CBF574AD2561F
:109A10008B7BA3F13103DBB288BF0022352B40F2F0
:109A2000818042720B7B313BDBB2352B9CBF4F4AAE
:109A3000D256CB7AA3F13103DBB288BF0022352B9B
:109A40006BD982728B7A313BDBB2352B9CBF474A94
:109A5000D2564B7AA3F13103DBB288BF0022352BFB
:109A600056D9C272CB79313BDBB2352B9CBF3F4A12
:109A7000D2568B79A3F13103DBB288BF0022352B9C
:109A800041D902734B79313BDBB2352B9CBF374A4E
:109A9000D2560B79A3F13103DBB288BF0022352BFC
:109AA0002CD94273CB78313BDBB2352B9CBF2F4A8C
:109AB000D2568B78A3F13103DBB288BF0022352B5D
:109AC00017D982734B78313BDBB2352B9CBF274AC9
:109AD000D2560B78A3F13103DBB288BF0022352BBD
:109AE00002D9C27330BC70472049CB5602EB031237
:109AF000F7E71E4CE35602EB0312E2E71B4CE3567A
:109B000002EB0312CDE7194CE35602EB0312B8E760
:109B1000164CE35602EB0312A3E7144CE35602EB98
:109B200003128EE7114CE35602EB031279E70F4C58
:109B3000E35602EB031263E70C4CE35602EB03120D
:109B40004DE70A4CE35602EB031237E7074CE356A6
:109B500002EB031221E7054CE35602EB03120BE77D
:109B6000024CE35602EB0312F5E600BF28A8010001
:109B70001D4CE35602EB0312DCE61B4CE35602EBF2
:109B80000312C6E6184CE35602EB0312AEE60223BC
:109B9000C3774B79313BDBB2352B9CBF124AD2568F
:109BA0000B79313BDBB2352B18D90270CB78313BC6
:109BB000DBB2352B9CBF0C4AD2568B78A3F1310314
:109BC000DBB288BF0022352B02D9427030BC70470F
:109BD0000549CB5602EB03124270F7E7024CE356FD
:109BE00002EB0312E1E700BF28A8010008B5024913
:109BF0000248FFF757FE08BD60A80100BC340020F2
:109C00008FDF7047BFF34F8F0549064BCA6802F4D8
:109C1000E0621343CB60BFF34F8F00BFFDE700BF8F
:109C200000ED00E00400FA05B5DF704760DF704723
:109C300069DF704761DF704710B5A2B000232D4C7B
:109C40000593CDE9023301220B930493CDF8223022
:109C5000CDE90633CDF82630ADF82A300D936423D4
:109C6000042120688DF808208DF80A208DF8142032
:109C7000ADF8163040F201120223ADF80C10ADF829
:109C800020208DF82D300C9000F0CCFAADF8340087
:109C9000206800F0C7FA184BADF836001B6802A91F
:109CA0001A462020FFF7C4FF08BB05A92220FFF7B2
:109CB000BFFFE0B908A94020FFF7BAFFB8B90BA968
:109CC0004120FFF7B5FF90B901A80193FFF7AEFF60
:109CD000019A0A4904469A1A0EA800F035FA34B9D6
:109CE000C820FFF79BFDFFF7D5FD22B010BDFFF7A1
:109CF00089FF00BF08300020F8A80100D4A80100A7
:109D00002DE9F04397B000AF391D0020FFF792FF17
:109D10000528354C354E364D2AD0BA8812F003034B
:109D200018BF012303EB92039B00DA1DE946D2081A
:109D3000A9EBC2029546E8464046B91DFB80FFF7F5
:109D400079FF00284ED1B8F80020212A37D013D847
:109D5000102A06D0112A3DD12020FFF75FFDFFF722
:109D600099FDCD46391D0020FFF764FF0528D4D1A9
:109D70005C37BD46BDE8F083222A14D0552A29D18C
:109D8000B8F80620642A28BF64221146B8F80400F7
:109D9000FFF74AFF1128F8D0294607F1080000F024
:109DA000D3F9CD46DEE707F10803184698F80920F5
:109DB00098F80A30214600F0C7F9CD46D2E707F1FE
:109DC000080340F201121946B8F804003A81FFF77F
:109DD00017FFEAE7BB88314607F1080000F0B4F945
:109DE000CD46BFE7FFF70EFF88A80100B0A801002D
:109DF000A0A80100BFF34F8F0549064BCA6802F4C3
:109E0000E0621343CB60BFF34F8F00BFFDE700BF9D
:109E100000ED00E00400FA0541DF704710DF7047F5
:109E200000B583B0084B0949019301A8FFF7F6FF7D
:109E300040B9FFF701FF01E0FFF762FFFFF7ECFF1A
:109E40000028F9D0FFF7D6FF01000007E1970100D5
:109E500070B4A54B1A689BB013784FF4817006213B
:109E6000ADF804008DF80610002B00F02681114695
:109E7000002500E0354611F8013F6E1C002BF9D19A
:109E8000F1B2881C09240131022DC0B28DF82410D2
:109E90008DF8254025DD1368CDF82630B308012B59
:109EA0001BD05168CDF82A10022B16D09168CDF83E
:109EB0002E10032B11D0D168CDF83210042B0CD00A
:109EC0001169CDF83610052B07D05169CDF83A103D
:109ED000062B02D09369CDF83E3026F003039E4254
:109EE00012D01AA91944D45C01F8424C9D4203F1E6
:109EF000010409DD165D01F8416CA54203F102037E
:109F000002DDD35C01F8403C002800F0D480012839
:109F1000054638BF0125032840F3E380099BCDF8AF
:109F20000730AB08012B00F0C0800A9ACDF80B2057
:109F3000022B00F0BC800B9ACDF80F20032B00F011
:109F4000B2800C9ACDF81320042B00F0C4800D9A37
:109F5000CDF81720052B00F0C0800E9ACDF81B20FD
:109F6000062B00F0BC800F9B604ACDF81F3025F017
:109F70000301CC1C8D424FEA1262E4B223D01AAB2B
:109F80000B444D1C13F8442C1AAB2344A84203F88D
:109F9000642C04F10103DAB215DD1AAB1D4413443D
:109FA000023115F8442C03F8642C884204F10203B2
:109FB000DAB208DD1AAB1944134411F8442C03F843
:109FC000642CE31CDAB24A48C37F06215C1C8DF87E
:109FD00044408DF84510002B6BD0591E022977D9CB
:109FE0000168CDF84610990801291CD04468CDF8C5
:109FF0004A40022917D08468CDF84E40032912D078
:10A00000C468CDF8524004290DD00469CDF85640FB
:10A01000052908D00629446918BF8169CDF85A403E
:10A0200018BFCDF85E1023F00304A11C9C42C9B2F6
:10A0300018D01AAD0D44065D05F8246C661C4D1C45
:10A04000B342EDB20EDD0DF1680C65440234865D5D
:10A0500005F8246C02319C42C9B203DA6144005D08
:10A0600001F8240C0233DBB2D018C0B211AC114697
:10A070001AAD0D440131C9B214F8016B05F8646CD6
:10A080008842F5D113448DF8233001AD0FCD194C22
:10A09000194E0FC495E80F0084E80F000023F377F2
:10A0A0001BB070BC7047154A61E7154A5FE7154A57
:10A0B0005DE70223D8E7032285E740F601131A0A79
:10A0C0008DF80820ADF824308DF8073005227AE7A6
:10A0D00002210024ADE70C4A49E70C4A47E70C4A45
:10A0E00045E7032400214AE7083000201C1D1E1FFD
:10A0F000BC340020DC340020FC3400200C0D0E0F9A
:10A100000405060708090A0B101112131415161777
:10A1100018191A1B38B504460846A26842B12368CC
:10A1200061685D1C8D4208BF00208B4208D2D0546C
:10A13000E3682BB121686268914201D221469847B9
:10A1400023680133236038BD0EB400B586B007AA7A
:10A1500052F8041B05920390002304936FF0004310
:10A16000029301A800F08EF806B05DF804EB03B08E
:10A17000704710B584B014460290002203920191FA
:10A180001A462146684600F07DF804B010BD8446AA
:10A1900040EA010313F0030F18D18446202A0BD3A1
:10A1A0002DE9F007B1E8F807A0E8F807A2F12002CE
:10A1B000202AF7D2BDE8F007042A07D351F8043B60
:10A1C00040F8043BA2F10402042AF7D2002A05D089
:10A1D00011F8013B00F8013B013AF9D160467047A4
:10A1E000024610F0030F16D111F0030F13D12DE921
:10A1F000F0004FF001374FF0803351F8044BA4EBDF
:10A20000070525EA04051D4002D142F8044BF4E796
:10A21000A1F10401F0BC11F8013B02F8013B002B55
:10A22000F9D1704700F1010110F0030F11D010F8BF
:10A23000012B002A23D010F0030F0AD010F8012BB5
:10A24000002A1CD010F0030F03D010F8012B002AB5
:10A2500015D02DE970004FF001324FF0803350F8E7
:10A26000044BA4EB020525EA04051D4000D1F6E7E6
:10A27000A0F1040070BC10F8012B002AFBD1A0EB68
:10A28000010070472DE9F04F89B007460D46039253
:10A2900000230360DFF8D893DFF8D8B3DFF8D8A342
:10A2A00048E2002209E0202804D0232818D142F0F7
:10A2B000800201E042F040022E46354615F8010BBF
:10A2C000272807D0EFD92B2807D05E2808D142F4E1
:10A2D0008052F1E742F40042EEE742F02002EBE761
:10A2E00074280BD07A2809D0682809D128786828E2
:10A2F00000F08380B51C42F0040201E02878B51C10
:10A3000078287FD8DFE810F02E027E007E007E00E5
:10A310007E007E007E007E007E007E007E007E004D
:10A320007E007E007E007E007E007E007E007E003D
:10A330007E007E007E007E007E007E007E007E002D
:10A340007E007E007E007E007E007E007E007E001D
:10A350007E008B007E007E007E007E007E007E0000
:10A360007E007E007E007E007E007E007E007E00FD
:10A370007E007E007E007E007E007E007E007E00ED
:10A380007E007E007E007E007E007E007E007E00DD
:10A390007E007E007E007E007E007E007E007E00CD
:10A3A0007E007E007E007E007E007E007E007E00BD
:10A3B0007E007E007E007E00CD007E007E007E005E
:10A3C0007E007E007E007E007E007E007E0090008B
:10A3D000E1007E007E007E007E00E1007E007E00C7
:10A3E0007E007E009800DA00B9007E007E00A900A1
:10A3F0007E001D017E007E00CF0042F008026878DA
:10A4000002357DE7994B1E68002E00F0938103AB67
:10A4100001934FF0FF3300933946B0478AE125217D
:10A420003846FFF777FE85E1039B1A1D03921978E2
:10A430003846FFF76FFE7DE112F0080F06D03A684C
:10A44000039B191D03911B681A7073E1039B1A1D6E
:10A4500003921B683A681A606CE1039B1A1D039211
:10A460001C682178002900F065813846FFF752FE0C
:10A4700014F8011F0029F8D15CE1039B191D039119
:10A480001B6802F0800100290CBF0026232642F43D
:10A490008071002B40F0CD8030238DF814300124E2
:10A4A000F9E042F4005212F0800F57D043F27806E0
:10A4B00043F25803782818BF1E4643E002F0800399
:10A4C000002B0CBF002630263CE042F48041039B69
:10A4D0001C1D03941B6812F0040F41D112F0080FE9
:10A4E0003FD0DBB212F0200F40F03F8112F0400469
:10A4F00040F03D815838202800F20F81DFE810F04D
:10A5000097000D010D010D010D010D010D010D0152
:10A510000D010D010D010D01DC000D010D010D01FD
:10A520000D01DC000D010D010D010D010D01AE004D
:10A5300097000D010D010D010D01DC000D010D0154
:10A5400097000026039B191D03911B6812F0040F4E
:10A5500054D112F0080F18BFDBB250E00026F1E72B
:10A560001BB2002BBEDA5B422D265838202800F2A1
:10A57000D68001A252F820F093A401001FA7010089
:10A580001FA701001FA701001FA701001FA70100AF
:10A590001FA701001FA701001FA701001FA701009F
:10A5A0001FA701001FA70100ADA601001FA7010002
:10A5B0001FA701001FA701001FA70100ADA60100F2
:10A5C0001FA701001FA701001FA701001FA701006F
:10A5D0001FA701005FA6010093A401001FA70100AF
:10A5E0001FA701001FA701001FA70100ADA60100C2
:10A5F0001FA701001FA7010093A401009BB25838B8
:10A6000020287ED8DFE800F0117D7D7D7D7D7D7D79
:10A610007D7D7D7D517D7D7D7D517D7D7D7D7D2B14
:10A62000117D7D7D7D517D7D1100114631E7002634
:10A630002FE705AA002401F4005008E003F00F0101
:10A640001BF801C002F801CB01341B0923D00028FC
:10A65000F4D003F00F011AF801C0F3E700266BB93C
:10A6600030238DF81430012415E000BF1C35002084
:10A67000CDCCCCCC00A9010010A901001A4605A937
:10A68000002403F00703303301F8013B0134D20802
:10A690001346002AF5D1FF2E35D8C6BB002C49DD64
:10A6A0000DF11408013C44443CE0114633B9302319
:10A6B0008DF814300124EEE70026F7E7002401F4BA
:10A6C00000404FF02C0E10E008AA02EB040CA9FB8E
:10A6D0000321C90801EB8102A3EB420230320CF8DE
:10A6E0000C2C0134092BD6D90B460028ECD004F0F1
:10A6F0000302032AE8D108AA224402F80CEC013430
:10A70000E2E70024C7E7310A3846FFF703FD06F009
:10A710007F013846FFF7FEFCC0E70026BDE70024B6
:10A72000F5E73446264616F801193846FFF7F2FCDD
:10A730004445F6D12E4616F8011B39B125293FF4C0
:10A74000B0AD3846FFF7E6FC3546F3E7BB682BB102
:10A750003A6879688A423CBF00219954386809B048
:10A76000BDE8F08F4FF0FF30F9E72B26FDE62026FD
:04A77000FBE600BF45
:08A77400ED9B0100519E010064
:10A77C005465726D696E616C000000005254540097
:10A78C005345474745520000486172646661756CD9
:10A79C007420617373657274696F6E2061742061CB
:10A7AC00646472657373203078253038580A000061
:10A7BC004D656D6F72792061636365737320766983
:10A7CC006F6C6174696F6E20617420616464726572
:10A7DC007373203078253038582061636365737348
:10A7EC00696E67203078253038580A00556E6B6ECC
:10A7FC006F776E20686172646661756C742028498D
:10A80C00443D25642920617420616464726573730E
:10A81C00203078253038580A00000000010203046B
:10A82C000506070809000000000000000A0B0C0DCB
:10A83C000E0F0000000000000000000000000000EF
:10A84C000000000000000000000000000A0B0C0DCE
:10A85C000E0F000036373233646636652D3832649D
:10A86C00352D343739622D383431362D353461631A
:10A87C00323033643365366500000000506879204F
:10A88C0073657420746F2074783D25642C20727865
:10A89C003D2564004D54552073657420746F20253C
:10A8AC00640000004576656E74203078257820723F
:10A8BC00656365697665642077697468206C656E7C
:10A8CC006774682025640A00536F66744465766962
:10A8DC006365207265706F727465642025642062F4
:10A8EC007974657320667265650A0000003000207B
:10A8FC0042465300303132333435363738396162A1
:10A90C006364656630313233343536373839414219
:04A91C004344454625
:0CA920000090D003FF000000FCA8010024
:040000031000953123
:00000001FF
